{
  "contractName": "Airdrop",
  "abi": [
    {
      "inputs": [
        {
          "internalType": "address",
          "name": "_token",
          "type": "address"
        },
        {
          "internalType": "address",
          "name": "_admin",
          "type": "address"
        }
      ],
      "stateMutability": "nonpayable",
      "type": "constructor"
    },
    {
      "anonymous": false,
      "inputs": [
        {
          "indexed": false,
          "internalType": "address",
          "name": "recipient",
          "type": "address"
        },
        {
          "indexed": false,
          "internalType": "uint256",
          "name": "amount",
          "type": "uint256"
        },
        {
          "indexed": false,
          "internalType": "uint256",
          "name": "date",
          "type": "uint256"
        }
      ],
      "name": "AirdropProcessed",
      "type": "event"
    },
    {
      "inputs": [],
      "name": "admin",
      "outputs": [
        {
          "internalType": "address",
          "name": "",
          "type": "address"
        }
      ],
      "stateMutability": "view",
      "type": "function",
      "constant": true
    },
    {
      "inputs": [],
      "name": "currentAirdropAmount",
      "outputs": [
        {
          "internalType": "uint256",
          "name": "",
          "type": "uint256"
        }
      ],
      "stateMutability": "view",
      "type": "function",
      "constant": true
    },
    {
      "inputs": [],
      "name": "maxAirdropAmount",
      "outputs": [
        {
          "internalType": "uint256",
          "name": "",
          "type": "uint256"
        }
      ],
      "stateMutability": "view",
      "type": "function",
      "constant": true
    },
    {
      "inputs": [
        {
          "internalType": "address",
          "name": "",
          "type": "address"
        }
      ],
      "name": "processedAirdrops",
      "outputs": [
        {
          "internalType": "bool",
          "name": "",
          "type": "bool"
        }
      ],
      "stateMutability": "view",
      "type": "function",
      "constant": true
    },
    {
      "inputs": [],
      "name": "token",
      "outputs": [
        {
          "internalType": "contract IERC20",
          "name": "",
          "type": "address"
        }
      ],
      "stateMutability": "view",
      "type": "function",
      "constant": true
    },
    {
      "inputs": [
        {
          "internalType": "address",
          "name": "newAdmin",
          "type": "address"
        }
      ],
      "name": "updateAdmin",
      "outputs": [],
      "stateMutability": "nonpayable",
      "type": "function"
    },
    {
      "inputs": [
        {
          "internalType": "address",
          "name": "recipient",
          "type": "address"
        },
        {
          "internalType": "uint256",
          "name": "amount",
          "type": "uint256"
        },
        {
          "internalType": "bytes",
          "name": "signature",
          "type": "bytes"
        }
      ],
      "name": "claimTokens",
      "outputs": [],
      "stateMutability": "nonpayable",
      "type": "function"
    }
  ],
  "bytecode": "0x608060405269152d02c7e14af680000060045534801561001e57600080fd5b50604051610f46380380610f46833981810160405281019061004091906100dd565b806000806101000a81548173ffffffffffffffffffffffffffffffffffffffff021916908373ffffffffffffffffffffffffffffffffffffffff16021790555081600260006101000a81548173ffffffffffffffffffffffffffffffffffffffff021916908373ffffffffffffffffffffffffffffffffffffffff1602179055505050610162565b6000815190506100d78161014b565b92915050565b600080604083850312156100f057600080fd5b60006100fe858286016100c8565b925050602061010f858286016100c8565b9150509250929050565b60006101248261012b565b9050919050565b600073ffffffffffffffffffffffffffffffffffffffff82169050919050565b61015481610119565b811461015f57600080fd5b50565b610dd5806101716000396000f3fe608060405234801561001057600080fd5b506004361061007d5760003560e01c80637424bab11161005b5780637424bab1146100ec578063e2f273bd1461010a578063f851a44014610126578063fc0c546a146101445761007d565b806323efeb121461008257806332ffa783146100a057806349e80422146100d0575b600080fd5b61008a610162565b6040516100979190610bd6565b60405180910390f35b6100ba60048036038101906100b59190610771565b610168565b6040516100c79190610adb565b60405180910390f35b6100ea60048036038101906100e5919061079a565b610188565b005b6100f46104df565b6040516101019190610bd6565b60405180910390f35b610124600480360381019061011f9190610771565b6104e5565b005b61012e6105b6565b60405161013b9190610a60565b60405180910390f35b61014c6105da565b6040516101599190610b3b565b60405180910390f35b60045481565b60016020528060005260406000206000915054906101000a900460ff1681565b60006101bb85856040516020016101a0929190610a0e565b60405160208183030381529060405280519060200120610600565b905060008054906101000a900473ffffffffffffffffffffffffffffffffffffffff1673ffffffffffffffffffffffffffffffffffffffff166102428285858080601f016020809104026020016040519081016040528093929190818152602001838380828437600081840152601f19601f82011690508083019250505050505050610630565b73ffffffffffffffffffffffffffffffffffffffff1614610298576040517f08c379a000000000000000000000000000000000000000000000000000000000815260040161028f90610bb6565b60405180910390fd5b60001515600160008773ffffffffffffffffffffffffffffffffffffffff1673ffffffffffffffffffffffffffffffffffffffff16815260200190815260200160002060009054906101000a900460ff1615151461032b576040517f08c379a000000000000000000000000000000000000000000000000000000000815260040161032290610b76565b60405180910390fd5b6004548460035461033c9190610c0d565b111561037d576040517f08c379a000000000000000000000000000000000000000000000000000000000815260040161037490610b96565b60405180910390fd5b60018060008773ffffffffffffffffffffffffffffffffffffffff1673ffffffffffffffffffffffffffffffffffffffff16815260200190815260200160002060006101000a81548160ff02191690831515021790555083600360008282546103e69190610c0d565b92505081905550600260009054906101000a900473ffffffffffffffffffffffffffffffffffffffff1673ffffffffffffffffffffffffffffffffffffffff1663a9059cbb86866040518363ffffffff1660e01b815260040161044a929190610a7b565b602060405180830381600087803b15801561046457600080fd5b505af1158015610478573d6000803e3d6000fd5b505050506040513d601f19601f8201168201806040525081019061049c9190610806565b507fc0312d3bf25e86c787fa77f4d038213e428dc722e16d38ca9719e987d20f7c7c8585426040516104d093929190610aa4565b60405180910390a15050505050565b60035481565b60008054906101000a900473ffffffffffffffffffffffffffffffffffffffff1673ffffffffffffffffffffffffffffffffffffffff163373ffffffffffffffffffffffffffffffffffffffff1614610573576040517f08c379a000000000000000000000000000000000000000000000000000000000815260040161056a90610b56565b60405180910390fd5b806000806101000a81548173ffffffffffffffffffffffffffffffffffffffff021916908373ffffffffffffffffffffffffffffffffffffffff16021790555050565b60008054906101000a900473ffffffffffffffffffffffffffffffffffffffff1681565b600260009054906101000a900473ffffffffffffffffffffffffffffffffffffffff1681565b6000816040516020016106139190610a3a565b604051602081830303815290604052805190602001209050919050565b60008060008061063f856106a5565b8093508194508295505050506001868484846040516000815260200160405260405161066e9493929190610af6565b6020604051602081039080840390855afa158015610690573d6000803e3d6000fd5b50505060206040510351935050505092915050565b600080600060418451146106b857600080fd5b60008060006020870151925060408701519150606087015160001a90508083839550955095505050509193909250565b6000813590506106f781610d5a565b92915050565b60008151905061070c81610d71565b92915050565b60008083601f84011261072457600080fd5b8235905067ffffffffffffffff81111561073d57600080fd5b60208301915083600182028301111561075557600080fd5b9250929050565b60008135905061076b81610d88565b92915050565b60006020828403121561078357600080fd5b6000610791848285016106e8565b91505092915050565b600080600080606085870312156107b057600080fd5b60006107be878288016106e8565b94505060206107cf8782880161075c565b935050604085013567ffffffffffffffff8111156107ec57600080fd5b6107f887828801610712565b925092505092959194509250565b60006020828403121561081857600080fd5b6000610826848285016106fd565b91505092915050565b61083881610c63565b82525050565b61084f61084a82610c63565b610ce6565b82525050565b61085e81610c75565b82525050565b61086d81610c81565b82525050565b61088461087f82610c81565b610cf8565b82525050565b61089381610cc2565b82525050565b60006108a6601c83610c02565b91507f19457468657265756d205369676e6564204d6573736167653a0a3332000000006000830152601c82019050919050565b60006108e6600a83610bf1565b91507f6f6e6c792061646d696e000000000000000000000000000000000000000000006000830152602082019050919050565b6000610926601983610bf1565b91507f61697264726f7020616c72656164792070726f636573736564000000000000006000830152602082019050919050565b6000610966601d83610bf1565b91507f61697264726f707065642031303025206f662074686520746f6b656e730000006000830152602082019050919050565b60006109a6600f83610bf1565b91507f77726f6e67207369676e617475726500000000000000000000000000000000006000830152602082019050919050565b6109e281610cab565b82525050565b6109f96109f482610cab565b610d14565b82525050565b610a0881610cb5565b82525050565b6000610a1a828561083e565b601482019150610a2a82846109e8565b6020820191508190509392505050565b6000610a4582610899565b9150610a518284610873565b60208201915081905092915050565b6000602082019050610a75600083018461082f565b92915050565b6000604082019050610a90600083018561082f565b610a9d60208301846109d9565b9392505050565b6000606082019050610ab9600083018661082f565b610ac660208301856109d9565b610ad360408301846109d9565b949350505050565b6000602082019050610af06000830184610855565b92915050565b6000608082019050610b0b6000830187610864565b610b1860208301866109ff565b610b256040830185610864565b610b326060830184610864565b95945050505050565b6000602082019050610b50600083018461088a565b92915050565b60006020820190508181036000830152610b6f816108d9565b9050919050565b60006020820190508181036000830152610b8f81610919565b9050919050565b60006020820190508181036000830152610baf81610959565b9050919050565b60006020820190508181036000830152610bcf81610999565b9050919050565b6000602082019050610beb60008301846109d9565b92915050565b600082825260208201905092915050565b600081905092915050565b6000610c1882610cab565b9150610c2383610cab565b9250827fffffffffffffffffffffffffffffffffffffffffffffffffffffffffffffffff03821115610c5857610c57610d1e565b5b828201905092915050565b6000610c6e82610c8b565b9050919050565b60008115159050919050565b6000819050919050565b600073ffffffffffffffffffffffffffffffffffffffff82169050919050565b6000819050919050565b600060ff82169050919050565b6000610ccd82610cd4565b9050919050565b6000610cdf82610c8b565b9050919050565b6000610cf182610d02565b9050919050565b6000819050919050565b6000610d0d82610d4d565b9050919050565b6000819050919050565b7f4e487b7100000000000000000000000000000000000000000000000000000000600052601160045260246000fd5b60008160601b9050919050565b610d6381610c63565b8114610d6e57600080fd5b50565b610d7a81610c75565b8114610d8557600080fd5b50565b610d9181610cab565b8114610d9c57600080fd5b5056fea2646970667358221220cdca988dd0a48c4b444f99c9dabad608268f536500fb5640c56a01e9b7c4c50264736f6c63430008000033",
  "immutableReferences": {},
  "source": "// SPDX-License-Identifier: Unlicensed\r\n\r\npragma solidity ^0.8.0;\r\n\r\nimport '@openzeppelin/contracts/token/ERC20/IERC20.sol';\r\n\r\ncontract Airdrop {\r\n  address public admin;\r\n  mapping(address => bool) public processedAirdrops;\r\n  IERC20 public token;\r\n  uint public currentAirdropAmount;\r\n  uint public maxAirdropAmount = 100000 * 10 ** 18;\r\n\r\n  event AirdropProcessed(\r\n    address recipient,\r\n    uint amount,\r\n    uint date\r\n  );\r\n\r\n  constructor(address _token, address _admin) {\r\n    admin = _admin; \r\n    token = IERC20(_token);\r\n  }\r\n\r\n  function updateAdmin(address newAdmin) external {\r\n    require(msg.sender == admin, 'only admin');\r\n    admin = newAdmin;\r\n  }\r\n\r\n  function claimTokens(\r\n    address recipient,\r\n    uint amount,\r\n    bytes calldata signature\r\n  ) external {\r\n    bytes32 message = prefixed(keccak256(abi.encodePacked(\r\n      recipient, \r\n      amount\r\n    )));\r\n    require(recoverSigner(message, signature) == admin , 'wrong signature');\r\n    require(processedAirdrops[recipient] == false, 'airdrop already processed');\r\n    require(currentAirdropAmount + amount <= maxAirdropAmount, 'airdropped 100% of the tokens');\r\n    processedAirdrops[recipient] = true;\r\n    currentAirdropAmount += amount;\r\n    token.transfer(recipient, amount);\r\n    emit AirdropProcessed(\r\n      recipient,\r\n      amount,\r\n      block.timestamp\r\n    );\r\n  }\r\n\r\n  function prefixed(bytes32 hash) internal pure returns (bytes32) {\r\n    return keccak256(abi.encodePacked(\r\n      '\\x19Ethereum Signed Message:\\n32', \r\n      hash\r\n    ));\r\n  }\r\n\r\n  function recoverSigner(bytes32 message, bytes memory sig)\r\n    internal\r\n    pure\r\n    returns (address)\r\n  {\r\n    uint8 v;\r\n    bytes32 r;\r\n    bytes32 s;\r\n  \r\n    (v, r, s) = splitSignature(sig);\r\n  \r\n    return ecrecover(message, v, r, s);\r\n  }\r\n\r\n  function splitSignature(bytes memory sig)\r\n    internal\r\n    pure\r\n    returns (uint8, bytes32, bytes32)\r\n  {\r\n    require(sig.length == 65);\r\n  \r\n    bytes32 r;\r\n    bytes32 s;\r\n    uint8 v;\r\n  \r\n    assembly {\r\n        // first 32 bytes, after the length prefix\r\n        r := mload(add(sig, 32))\r\n        // second 32 bytes\r\n        s := mload(add(sig, 64))\r\n        // final byte (first byte of the next 32 bytes)\r\n        v := byte(0, mload(add(sig, 96)))\r\n    }\r\n  \r\n    return (v, r, s);\r\n  }\r\n}",
  "sourcePath": "C:\\Users\\HP\\Documents\\react\\nft-antique-art\\contracts\\Airdrop.sol",
  "compiler": {
    "name": "solc",
    "version": "0.8.0+commit.c7dfd78e.Emscripten.clang"
  },
  "schemaVersion": "3.4.3",
  "updatedAt": "2021-10-24T01:46:41.213Z",
  "networkType": "ethereum",
  "devdoc": {
    "kind": "dev",
    "methods": {},
    "version": 1
  },
  "userdoc": {
    "kind": "user",
    "methods": {},
    "version": 1
  }
}