{
  "contractName": "NAAToken",
  "abi": [
    {
      "inputs": [],
      "stateMutability": "nonpayable",
      "type": "constructor"
    },
    {
      "anonymous": false,
      "inputs": [
        {
          "indexed": true,
          "internalType": "address",
          "name": "owner",
          "type": "address"
        },
        {
          "indexed": true,
          "internalType": "address",
          "name": "spender",
          "type": "address"
        },
        {
          "indexed": false,
          "internalType": "uint256",
          "name": "value",
          "type": "uint256"
        }
      ],
      "name": "Approval",
      "type": "event"
    },
    {
      "anonymous": false,
      "inputs": [
        {
          "indexed": true,
          "internalType": "address",
          "name": "previousOwner",
          "type": "address"
        },
        {
          "indexed": true,
          "internalType": "address",
          "name": "newOwner",
          "type": "address"
        }
      ],
      "name": "OwnershipTransferred",
      "type": "event"
    },
    {
      "anonymous": false,
      "inputs": [
        {
          "indexed": true,
          "internalType": "address",
          "name": "from",
          "type": "address"
        },
        {
          "indexed": true,
          "internalType": "address",
          "name": "to",
          "type": "address"
        },
        {
          "indexed": false,
          "internalType": "uint256",
          "name": "value",
          "type": "uint256"
        }
      ],
      "name": "Transfer",
      "type": "event"
    },
    {
      "inputs": [],
      "name": "owner",
      "outputs": [
        {
          "internalType": "address",
          "name": "",
          "type": "address"
        }
      ],
      "stateMutability": "view",
      "type": "function",
      "constant": true
    },
    {
      "inputs": [],
      "name": "renounceOwnership",
      "outputs": [],
      "stateMutability": "nonpayable",
      "type": "function"
    },
    {
      "inputs": [
        {
          "internalType": "address",
          "name": "newOwner",
          "type": "address"
        }
      ],
      "name": "transferOwnership",
      "outputs": [],
      "stateMutability": "nonpayable",
      "type": "function"
    },
    {
      "inputs": [],
      "name": "totalSupply",
      "outputs": [
        {
          "internalType": "uint256",
          "name": "",
          "type": "uint256"
        }
      ],
      "stateMutability": "pure",
      "type": "function",
      "constant": true
    },
    {
      "inputs": [
        {
          "internalType": "address",
          "name": "account",
          "type": "address"
        }
      ],
      "name": "balanceOf",
      "outputs": [
        {
          "internalType": "uint256",
          "name": "",
          "type": "uint256"
        }
      ],
      "stateMutability": "view",
      "type": "function",
      "constant": true
    },
    {
      "inputs": [
        {
          "internalType": "address",
          "name": "recipient",
          "type": "address"
        },
        {
          "internalType": "uint256",
          "name": "amount",
          "type": "uint256"
        }
      ],
      "name": "transfer",
      "outputs": [
        {
          "internalType": "bool",
          "name": "",
          "type": "bool"
        }
      ],
      "stateMutability": "nonpayable",
      "type": "function"
    },
    {
      "inputs": [
        {
          "internalType": "address",
          "name": "owner",
          "type": "address"
        },
        {
          "internalType": "address",
          "name": "spender",
          "type": "address"
        }
      ],
      "name": "allowance",
      "outputs": [
        {
          "internalType": "uint256",
          "name": "",
          "type": "uint256"
        }
      ],
      "stateMutability": "view",
      "type": "function",
      "constant": true
    },
    {
      "inputs": [
        {
          "internalType": "address",
          "name": "spender",
          "type": "address"
        },
        {
          "internalType": "uint256",
          "name": "amount",
          "type": "uint256"
        }
      ],
      "name": "approve",
      "outputs": [
        {
          "internalType": "bool",
          "name": "",
          "type": "bool"
        }
      ],
      "stateMutability": "nonpayable",
      "type": "function"
    },
    {
      "inputs": [
        {
          "internalType": "address",
          "name": "sender",
          "type": "address"
        },
        {
          "internalType": "address",
          "name": "recipient",
          "type": "address"
        },
        {
          "internalType": "uint256",
          "name": "amount",
          "type": "uint256"
        }
      ],
      "name": "transferFrom",
      "outputs": [
        {
          "internalType": "bool",
          "name": "",
          "type": "bool"
        }
      ],
      "stateMutability": "nonpayable",
      "type": "function"
    },
    {
      "inputs": [
        {
          "internalType": "address",
          "name": "spender",
          "type": "address"
        },
        {
          "internalType": "uint256",
          "name": "addedValue",
          "type": "uint256"
        }
      ],
      "name": "increaseAllowance",
      "outputs": [
        {
          "internalType": "bool",
          "name": "",
          "type": "bool"
        }
      ],
      "stateMutability": "nonpayable",
      "type": "function"
    },
    {
      "inputs": [
        {
          "internalType": "address",
          "name": "spender",
          "type": "address"
        },
        {
          "internalType": "uint256",
          "name": "subtractedValue",
          "type": "uint256"
        }
      ],
      "name": "decreaseAllowance",
      "outputs": [
        {
          "internalType": "bool",
          "name": "",
          "type": "bool"
        }
      ],
      "stateMutability": "nonpayable",
      "type": "function"
    },
    {
      "inputs": [
        {
          "internalType": "address",
          "name": "account",
          "type": "address"
        }
      ],
      "name": "isExcluded",
      "outputs": [
        {
          "internalType": "bool",
          "name": "",
          "type": "bool"
        }
      ],
      "stateMutability": "view",
      "type": "function",
      "constant": true
    },
    {
      "inputs": [],
      "name": "totalFees",
      "outputs": [
        {
          "internalType": "uint256",
          "name": "",
          "type": "uint256"
        }
      ],
      "stateMutability": "view",
      "type": "function",
      "constant": true
    },
    {
      "inputs": [
        {
          "internalType": "uint256",
          "name": "tAmount",
          "type": "uint256"
        }
      ],
      "name": "reflect",
      "outputs": [],
      "stateMutability": "nonpayable",
      "type": "function"
    },
    {
      "inputs": [
        {
          "internalType": "uint256",
          "name": "tAmount",
          "type": "uint256"
        },
        {
          "internalType": "bool",
          "name": "deductTransferFee",
          "type": "bool"
        }
      ],
      "name": "reflectionFromToken",
      "outputs": [
        {
          "internalType": "uint256",
          "name": "",
          "type": "uint256"
        }
      ],
      "stateMutability": "view",
      "type": "function",
      "constant": true
    },
    {
      "inputs": [
        {
          "internalType": "uint256",
          "name": "rAmount",
          "type": "uint256"
        }
      ],
      "name": "tokenFromReflection",
      "outputs": [
        {
          "internalType": "uint256",
          "name": "",
          "type": "uint256"
        }
      ],
      "stateMutability": "view",
      "type": "function",
      "constant": true
    },
    {
      "inputs": [
        {
          "internalType": "address",
          "name": "account",
          "type": "address"
        }
      ],
      "name": "excludeAccount",
      "outputs": [],
      "stateMutability": "nonpayable",
      "type": "function"
    },
    {
      "inputs": [
        {
          "internalType": "address",
          "name": "account",
          "type": "address"
        }
      ],
      "name": "includeAccount",
      "outputs": [],
      "stateMutability": "nonpayable",
      "type": "function"
    }
  ],
  "bytecode": "0x60806040526402540be4006000196200001991906200040d565b60001962000028919062000392565b6006556040518060400160405280600d81526020017f4e4654416e7469717565417274000000000000000000000000000000000000008152506008908051906020019062000078929190620002b4565b506040518060400160405280600381526020017f4e4141000000000000000000000000000000000000000000000000000000000081525060099080519060200190620000c6929190620002b4565b506009600a60006101000a81548160ff021916908360ff160217905550348015620000f057600080fd5b506200011162000105620001e860201b60201c565b620001f060201b60201c565b6006546001600062000128620001e860201b60201c565b73ffffffffffffffffffffffffffffffffffffffff1673ffffffffffffffffffffffffffffffffffffffff1681526020019081526020016000208190555062000176620001e860201b60201c565b73ffffffffffffffffffffffffffffffffffffffff16600073ffffffffffffffffffffffffffffffffffffffff167fddf252ad1be2c89b69c2b068fc378daa952ba7f163c4a11628f55a4df523b3ef6402540be400604051620001da919062000375565b60405180910390a3620004d2565b600033905090565b60008060009054906101000a900473ffffffffffffffffffffffffffffffffffffffff169050816000806101000a81548173ffffffffffffffffffffffffffffffffffffffff021916908373ffffffffffffffffffffffffffffffffffffffff1602179055508173ffffffffffffffffffffffffffffffffffffffff168173ffffffffffffffffffffffffffffffffffffffff167f8be0079c531659141344cd1fd0a4f28419497f9722a3daafe3b4186f6b6457e060405160405180910390a35050565b828054620002c290620003d7565b90600052602060002090601f016020900481019282620002e6576000855562000332565b82601f106200030157805160ff191683800117855562000332565b8280016001018555821562000332579182015b828111156200033157825182559160200191906001019062000314565b5b50905062000341919062000345565b5090565b5b808211156200036057600081600090555060010162000346565b5090565b6200036f81620003cd565b82525050565b60006020820190506200038c600083018462000364565b92915050565b60006200039f82620003cd565b9150620003ac83620003cd565b925082821015620003c257620003c162000445565b5b828203905092915050565b6000819050919050565b60006002820490506001821680620003f057607f821691505b60208210811415620004075762000406620004a3565b5b50919050565b60006200041a82620003cd565b91506200042783620003cd565b9250826200043a576200043962000474565b5b828206905092915050565b7f4e487b7100000000000000000000000000000000000000000000000000000000600052601160045260246000fd5b7f4e487b7100000000000000000000000000000000000000000000000000000000600052601260045260246000fd5b7f4e487b7100000000000000000000000000000000000000000000000000000000600052602260045260246000fd5b61331680620004e26000396000f3fe608060405234801561001057600080fd5b50600436106101165760003560e01c8063715018a6116100a2578063cba0e99611610071578063cba0e9961461031b578063dd62ed3e1461034b578063f2cc0c181461037b578063f2fde38b14610397578063f84354f1146103b357610116565b8063715018a6146102935780638da5cb5b1461029d578063a457c2d7146102bb578063a9059cbb146102eb57610116565b806323b872dd116100e957806323b872dd146101a35780632d838119146101d357806339509351146102035780634549b0391461023357806370a082311461026357610116565b8063053ab1821461011b578063095ea7b31461013757806313114a9d1461016757806318160ddd14610185575b600080fd5b6101356004803603810190610130919061295c565b6103cf565b005b610151600480360381019061014c9190612920565b610549565b60405161015e9190612e32565b60405180910390f35b61016f610567565b60405161017c9190612fcf565b60405180910390f35b61018d610571565b60405161019a9190612fcf565b60405180910390f35b6101bd60048036038101906101b891906128d1565b61057e565b6040516101ca9190612e32565b60405180910390f35b6101ed60048036038101906101e8919061295c565b610657565b6040516101fa9190612fcf565b60405180910390f35b61021d60048036038101906102189190612920565b6106c5565b60405161022a9190612e32565b60405180910390f35b61024d60048036038101906102489190612985565b610778565b60405161025a9190612fcf565b60405180910390f35b61027d6004803603810190610278919061286c565b6107fd565b60405161028a9190612fcf565b60405180910390f35b61029b6108e8565b005b6102a5610970565b6040516102b29190612e17565b60405180910390f35b6102d560048036038101906102d09190612920565b610999565b6040516102e29190612e32565b60405180910390f35b61030560048036038101906103009190612920565b610a66565b6040516103129190612e32565b60405180910390f35b6103356004803603810190610330919061286c565b610a84565b6040516103429190612e32565b60405180910390f35b61036560048036038101906103609190612895565b610ada565b6040516103729190612fcf565b60405180910390f35b6103956004803603810190610390919061286c565b610b61565b005b6103b160048036038101906103ac919061286c565b610dfc565b005b6103cd60048036038101906103c8919061286c565b610ef4565b005b60006103d96112c2565b9050600460008273ffffffffffffffffffffffffffffffffffffffff1673ffffffffffffffffffffffffffffffffffffffff16815260200190815260200160002060009054906101000a900460ff1615610468576040517f08c379a000000000000000000000000000000000000000000000000000000000815260040161045f90612faf565b60405180910390fd5b6000610473836112ca565b5050505090506104cb81600160008573ffffffffffffffffffffffffffffffffffffffff1673ffffffffffffffffffffffffffffffffffffffff1681526020019081526020016000205461132290919063ffffffff16565b600160008473ffffffffffffffffffffffffffffffffffffffff1673ffffffffffffffffffffffffffffffffffffffff168152602001908152602001600020819055506105238160065461132290919063ffffffff16565b60068190555061053e8360075461133890919063ffffffff16565b600781905550505050565b600061055d6105566112c2565b848461134e565b6001905092915050565b6000600754905090565b60006402540be400905090565b600061058b848484611519565b61064c846105976112c2565b6106478560405180606001604052806028815260200161329460289139600360008b73ffffffffffffffffffffffffffffffffffffffff1673ffffffffffffffffffffffffffffffffffffffff16815260200190815260200160002060006105fd6112c2565b73ffffffffffffffffffffffffffffffffffffffff1673ffffffffffffffffffffffffffffffffffffffff168152602001908152602001600020546119309092919063ffffffff16565b61134e565b600190509392505050565b600060065482111561069e576040517f08c379a000000000000000000000000000000000000000000000000000000000815260040161069590612e8f565b60405180910390fd5b60006106a8611985565b90506106bd81846119b090919063ffffffff16565b915050919050565b600061076e6106d26112c2565b8461076985600360006106e36112c2565b73ffffffffffffffffffffffffffffffffffffffff1673ffffffffffffffffffffffffffffffffffffffff16815260200190815260200160002060008973ffffffffffffffffffffffffffffffffffffffff1673ffffffffffffffffffffffffffffffffffffffff1681526020019081526020016000205461133890919063ffffffff16565b61134e565b6001905092915050565b60006402540be4008311156107c2576040517f08c379a00000000000000000000000000000000000000000000000000000000081526004016107b990612f0f565b60405180910390fd5b816107e15760006107d2846112ca565b505050509050809150506107f7565b60006107ec846112ca565b505050915050809150505b92915050565b6000600460008373ffffffffffffffffffffffffffffffffffffffff1673ffffffffffffffffffffffffffffffffffffffff16815260200190815260200160002060009054906101000a900460ff161561089857600260008373ffffffffffffffffffffffffffffffffffffffff1673ffffffffffffffffffffffffffffffffffffffff1681526020019081526020016000205490506108e3565b6108e0600160008473ffffffffffffffffffffffffffffffffffffffff1673ffffffffffffffffffffffffffffffffffffffff16815260200190815260200160002054610657565b90505b919050565b6108f06112c2565b73ffffffffffffffffffffffffffffffffffffffff1661090e610970565b73ffffffffffffffffffffffffffffffffffffffff1614610964576040517f08c379a000000000000000000000000000000000000000000000000000000000815260040161095b90612f2f565b60405180910390fd5b61096e60006119c6565b565b60008060009054906101000a900473ffffffffffffffffffffffffffffffffffffffff16905090565b6000610a5c6109a66112c2565b84610a57856040518060600160405280602581526020016132bc60259139600360006109d06112c2565b73ffffffffffffffffffffffffffffffffffffffff1673ffffffffffffffffffffffffffffffffffffffff16815260200190815260200160002060008a73ffffffffffffffffffffffffffffffffffffffff1673ffffffffffffffffffffffffffffffffffffffff168152602001908152602001600020546119309092919063ffffffff16565b61134e565b6001905092915050565b6000610a7a610a736112c2565b8484611519565b6001905092915050565b6000600460008373ffffffffffffffffffffffffffffffffffffffff1673ffffffffffffffffffffffffffffffffffffffff16815260200190815260200160002060009054906101000a900460ff169050919050565b6000600360008473ffffffffffffffffffffffffffffffffffffffff1673ffffffffffffffffffffffffffffffffffffffff16815260200190815260200160002060008373ffffffffffffffffffffffffffffffffffffffff1673ffffffffffffffffffffffffffffffffffffffff16815260200190815260200160002054905092915050565b610b696112c2565b73ffffffffffffffffffffffffffffffffffffffff16610b87610970565b73ffffffffffffffffffffffffffffffffffffffff1614610bdd576040517f08c379a0000000000000000000000000000000000000000000000000000000008152600401610bd490612f2f565b60405180910390fd5b600460008273ffffffffffffffffffffffffffffffffffffffff1673ffffffffffffffffffffffffffffffffffffffff16815260200190815260200160002060009054906101000a900460ff1615610c6a576040517f08c379a0000000000000000000000000000000000000000000000000000000008152600401610c6190612eef565b60405180910390fd5b6000600160008373ffffffffffffffffffffffffffffffffffffffff1673ffffffffffffffffffffffffffffffffffffffff168152602001908152602001600020541115610d3e57610cfa600160008373ffffffffffffffffffffffffffffffffffffffff1673ffffffffffffffffffffffffffffffffffffffff16815260200190815260200160002054610657565b600260008373ffffffffffffffffffffffffffffffffffffffff1673ffffffffffffffffffffffffffffffffffffffff168152602001908152602001600020819055505b6001600460008373ffffffffffffffffffffffffffffffffffffffff1673ffffffffffffffffffffffffffffffffffffffff16815260200190815260200160002060006101000a81548160ff0219169083151502179055506005819080600181540180825580915050600190039060005260206000200160009091909190916101000a81548173ffffffffffffffffffffffffffffffffffffffff021916908373ffffffffffffffffffffffffffffffffffffffff16021790555050565b610e046112c2565b73ffffffffffffffffffffffffffffffffffffffff16610e22610970565b73ffffffffffffffffffffffffffffffffffffffff1614610e78576040517f08c379a0000000000000000000000000000000000000000000000000000000008152600401610e6f90612f2f565b60405180910390fd5b600073ffffffffffffffffffffffffffffffffffffffff168173ffffffffffffffffffffffffffffffffffffffff161415610ee8576040517f08c379a0000000000000000000000000000000000000000000000000000000008152600401610edf90612eaf565b60405180910390fd5b610ef1816119c6565b50565b610efc6112c2565b73ffffffffffffffffffffffffffffffffffffffff16610f1a610970565b73ffffffffffffffffffffffffffffffffffffffff1614610f70576040517f08c379a0000000000000000000000000000000000000000000000000000000008152600401610f6790612f2f565b60405180910390fd5b600460008273ffffffffffffffffffffffffffffffffffffffff1673ffffffffffffffffffffffffffffffffffffffff16815260200190815260200160002060009054906101000a900460ff16610ffc576040517f08c379a0000000000000000000000000000000000000000000000000000000008152600401610ff390612eef565b60405180910390fd5b60005b6005805490508110156112be578173ffffffffffffffffffffffffffffffffffffffff166005828154811061105d577f4e487b7100000000000000000000000000000000000000000000000000000000600052603260045260246000fd5b9060005260206000200160009054906101000a900473ffffffffffffffffffffffffffffffffffffffff1673ffffffffffffffffffffffffffffffffffffffff1614156112ab57600560016005805490506110b891906130e7565b815481106110ef577f4e487b7100000000000000000000000000000000000000000000000000000000600052603260045260246000fd5b9060005260206000200160009054906101000a900473ffffffffffffffffffffffffffffffffffffffff1660058281548110611154577f4e487b7100000000000000000000000000000000000000000000000000000000600052603260045260246000fd5b9060005260206000200160006101000a81548173ffffffffffffffffffffffffffffffffffffffff021916908373ffffffffffffffffffffffffffffffffffffffff1602179055506000600260008473ffffffffffffffffffffffffffffffffffffffff1673ffffffffffffffffffffffffffffffffffffffff168152602001908152602001600020819055506000600460008473ffffffffffffffffffffffffffffffffffffffff1673ffffffffffffffffffffffffffffffffffffffff16815260200190815260200160002060006101000a81548160ff0219169083151502179055506005805480611271577f4e487b7100000000000000000000000000000000000000000000000000000000600052603160045260246000fd5b6001900381819060005260206000200160006101000a81549073ffffffffffffffffffffffffffffffffffffffff021916905590556112be565b80806112b690613196565b915050610fff565b5050565b600033905090565b60008060008060008060006112de88611a8a565b9150915060006112ec611985565b905060008060006112fe8c8686611adc565b92509250925082828288889a509a509a509a509a5050505050505091939590929450565b6000818361133091906130e7565b905092915050565b600081836113469190613006565b905092915050565b600073ffffffffffffffffffffffffffffffffffffffff168373ffffffffffffffffffffffffffffffffffffffff1614156113be576040517f08c379a00000000000000000000000000000000000000000000000000000000081526004016113b590612f8f565b60405180910390fd5b600073ffffffffffffffffffffffffffffffffffffffff168273ffffffffffffffffffffffffffffffffffffffff16141561142e576040517f08c379a000000000000000000000000000000000000000000000000000000000815260040161142590612ecf565b60405180910390fd5b80600360008573ffffffffffffffffffffffffffffffffffffffff1673ffffffffffffffffffffffffffffffffffffffff16815260200190815260200160002060008473ffffffffffffffffffffffffffffffffffffffff1673ffffffffffffffffffffffffffffffffffffffff168152602001908152602001600020819055508173ffffffffffffffffffffffffffffffffffffffff168373ffffffffffffffffffffffffffffffffffffffff167f8c5be1e5ebec7d5bd14f71427d1e84f3dd0314c0f7b2291e5b200ac8c7c3b9258360405161150c9190612fcf565b60405180910390a3505050565b600073ffffffffffffffffffffffffffffffffffffffff168373ffffffffffffffffffffffffffffffffffffffff161415611589576040517f08c379a000000000000000000000000000000000000000000000000000000000815260040161158090612f6f565b60405180910390fd5b600073ffffffffffffffffffffffffffffffffffffffff168273ffffffffffffffffffffffffffffffffffffffff1614156115f9576040517f08c379a00000000000000000000000000000000000000000000000000000000081526004016115f090612e6f565b60405180910390fd5b6000811161163c576040517f08c379a000000000000000000000000000000000000000000000000000000000815260040161163390612f4f565b60405180910390fd5b600460008473ffffffffffffffffffffffffffffffffffffffff1673ffffffffffffffffffffffffffffffffffffffff16815260200190815260200160002060009054906101000a900460ff1680156116df5750600460008373ffffffffffffffffffffffffffffffffffffffff1673ffffffffffffffffffffffffffffffffffffffff16815260200190815260200160002060009054906101000a900460ff16155b156116f4576116ef838383611b3a565b61192b565b600460008473ffffffffffffffffffffffffffffffffffffffff1673ffffffffffffffffffffffffffffffffffffffff16815260200190815260200160002060009054906101000a900460ff161580156117975750600460008373ffffffffffffffffffffffffffffffffffffffff1673ffffffffffffffffffffffffffffffffffffffff16815260200190815260200160002060009054906101000a900460ff165b156117ac576117a7838383611d8d565b61192a565b600460008473ffffffffffffffffffffffffffffffffffffffff1673ffffffffffffffffffffffffffffffffffffffff16815260200190815260200160002060009054906101000a900460ff161580156118505750600460008373ffffffffffffffffffffffffffffffffffffffff1673ffffffffffffffffffffffffffffffffffffffff16815260200190815260200160002060009054906101000a900460ff16155b1561186557611860838383611fe0565b611929565b600460008473ffffffffffffffffffffffffffffffffffffffff1673ffffffffffffffffffffffffffffffffffffffff16815260200190815260200160002060009054906101000a900460ff1680156119075750600460008373ffffffffffffffffffffffffffffffffffffffff1673ffffffffffffffffffffffffffffffffffffffff16815260200190815260200160002060009054906101000a900460ff165b1561191c5761191783838361219e565b611928565b611927838383611fe0565b5b5b5b5b505050565b6000838311158290611978576040517f08c379a000000000000000000000000000000000000000000000000000000000815260040161196f9190612e4d565b60405180910390fd5b5082840390509392505050565b6000806000611992612486565b915091506119a981836119b090919063ffffffff16565b9250505090565b600081836119be919061305c565b905092915050565b60008060009054906101000a900473ffffffffffffffffffffffffffffffffffffffff169050816000806101000a81548173ffffffffffffffffffffffffffffffffffffffff021916908373ffffffffffffffffffffffffffffffffffffffff1602179055508173ffffffffffffffffffffffffffffffffffffffff168173ffffffffffffffffffffffffffffffffffffffff167f8be0079c531659141344cd1fd0a4f28419497f9722a3daafe3b4186f6b6457e060405160405180910390a35050565b6000806000611ab66005611aa86064876119b090919063ffffffff16565b6127dd90919063ffffffff16565b90506000611acd828661132290919063ffffffff16565b90508082935093505050915091565b600080600080611af585886127dd90919063ffffffff16565b90506000611b0c86886127dd90919063ffffffff16565b90506000611b23828461132290919063ffffffff16565b905082818395509550955050505093509350939050565b6000806000806000611b4b866112ca565b94509450945094509450611ba786600260008b73ffffffffffffffffffffffffffffffffffffffff1673ffffffffffffffffffffffffffffffffffffffff1681526020019081526020016000205461132290919063ffffffff16565b600260008a73ffffffffffffffffffffffffffffffffffffffff1673ffffffffffffffffffffffffffffffffffffffff16815260200190815260200160002081905550611c3c85600160008b73ffffffffffffffffffffffffffffffffffffffff1673ffffffffffffffffffffffffffffffffffffffff1681526020019081526020016000205461132290919063ffffffff16565b600160008a73ffffffffffffffffffffffffffffffffffffffff1673ffffffffffffffffffffffffffffffffffffffff16815260200190815260200160002081905550611cd184600160008a73ffffffffffffffffffffffffffffffffffffffff1673ffffffffffffffffffffffffffffffffffffffff1681526020019081526020016000205461133890919063ffffffff16565b600160008973ffffffffffffffffffffffffffffffffffffffff1673ffffffffffffffffffffffffffffffffffffffff16815260200190815260200160002081905550611d1e83826127f3565b8673ffffffffffffffffffffffffffffffffffffffff168873ffffffffffffffffffffffffffffffffffffffff167fddf252ad1be2c89b69c2b068fc378daa952ba7f163c4a11628f55a4df523b3ef84604051611d7b9190612fcf565b60405180910390a35050505050505050565b6000806000806000611d9e866112ca565b94509450945094509450611dfa85600160008b73ffffffffffffffffffffffffffffffffffffffff1673ffffffffffffffffffffffffffffffffffffffff1681526020019081526020016000205461132290919063ffffffff16565b600160008a73ffffffffffffffffffffffffffffffffffffffff1673ffffffffffffffffffffffffffffffffffffffff16815260200190815260200160002081905550611e8f82600260008a73ffffffffffffffffffffffffffffffffffffffff1673ffffffffffffffffffffffffffffffffffffffff1681526020019081526020016000205461133890919063ffffffff16565b600260008973ffffffffffffffffffffffffffffffffffffffff1673ffffffffffffffffffffffffffffffffffffffff16815260200190815260200160002081905550611f2484600160008a73ffffffffffffffffffffffffffffffffffffffff1673ffffffffffffffffffffffffffffffffffffffff1681526020019081526020016000205461133890919063ffffffff16565b600160008973ffffffffffffffffffffffffffffffffffffffff1673ffffffffffffffffffffffffffffffffffffffff16815260200190815260200160002081905550611f7183826127f3565b8673ffffffffffffffffffffffffffffffffffffffff168873ffffffffffffffffffffffffffffffffffffffff167fddf252ad1be2c89b69c2b068fc378daa952ba7f163c4a11628f55a4df523b3ef84604051611fce9190612fcf565b60405180910390a35050505050505050565b6000806000806000611ff1866112ca565b9450945094509450945061204d85600160008b73ffffffffffffffffffffffffffffffffffffffff1673ffffffffffffffffffffffffffffffffffffffff1681526020019081526020016000205461132290919063ffffffff16565b600160008a73ffffffffffffffffffffffffffffffffffffffff1673ffffffffffffffffffffffffffffffffffffffff168152602001908152602001600020819055506120e284600160008a73ffffffffffffffffffffffffffffffffffffffff1673ffffffffffffffffffffffffffffffffffffffff1681526020019081526020016000205461133890919063ffffffff16565b600160008973ffffffffffffffffffffffffffffffffffffffff1673ffffffffffffffffffffffffffffffffffffffff1681526020019081526020016000208190555061212f83826127f3565b8673ffffffffffffffffffffffffffffffffffffffff168873ffffffffffffffffffffffffffffffffffffffff167fddf252ad1be2c89b69c2b068fc378daa952ba7f163c4a11628f55a4df523b3ef8460405161218c9190612fcf565b60405180910390a35050505050505050565b60008060008060006121af866112ca565b9450945094509450945061220b86600260008b73ffffffffffffffffffffffffffffffffffffffff1673ffffffffffffffffffffffffffffffffffffffff1681526020019081526020016000205461132290919063ffffffff16565b600260008a73ffffffffffffffffffffffffffffffffffffffff1673ffffffffffffffffffffffffffffffffffffffff168152602001908152602001600020819055506122a085600160008b73ffffffffffffffffffffffffffffffffffffffff1673ffffffffffffffffffffffffffffffffffffffff1681526020019081526020016000205461132290919063ffffffff16565b600160008a73ffffffffffffffffffffffffffffffffffffffff1673ffffffffffffffffffffffffffffffffffffffff1681526020019081526020016000208190555061233582600260008a73ffffffffffffffffffffffffffffffffffffffff1673ffffffffffffffffffffffffffffffffffffffff1681526020019081526020016000205461133890919063ffffffff16565b600260008973ffffffffffffffffffffffffffffffffffffffff1673ffffffffffffffffffffffffffffffffffffffff168152602001908152602001600020819055506123ca84600160008a73ffffffffffffffffffffffffffffffffffffffff1673ffffffffffffffffffffffffffffffffffffffff1681526020019081526020016000205461133890919063ffffffff16565b600160008973ffffffffffffffffffffffffffffffffffffffff1673ffffffffffffffffffffffffffffffffffffffff1681526020019081526020016000208190555061241783826127f3565b8673ffffffffffffffffffffffffffffffffffffffff168873ffffffffffffffffffffffffffffffffffffffff167fddf252ad1be2c89b69c2b068fc378daa952ba7f163c4a11628f55a4df523b3ef846040516124749190612fcf565b60405180910390a35050505050505050565b6000806000600654905060006402540be400905060005b60058054905081101561279a578260016000600584815481106124e9577f4e487b7100000000000000000000000000000000000000000000000000000000600052603260045260246000fd5b9060005260206000200160009054906101000a900473ffffffffffffffffffffffffffffffffffffffff1673ffffffffffffffffffffffffffffffffffffffff1673ffffffffffffffffffffffffffffffffffffffff1681526020019081526020016000205411806125fd5750816002600060058481548110612595577f4e487b7100000000000000000000000000000000000000000000000000000000600052603260045260246000fd5b9060005260206000200160009054906101000a900473ffffffffffffffffffffffffffffffffffffffff1673ffffffffffffffffffffffffffffffffffffffff1673ffffffffffffffffffffffffffffffffffffffff16815260200190815260200160002054115b15612617576006546402540be400945094505050506127d9565b6126cd6001600060058481548110612658577f4e487b7100000000000000000000000000000000000000000000000000000000600052603260045260246000fd5b9060005260206000200160009054906101000a900473ffffffffffffffffffffffffffffffffffffffff1673ffffffffffffffffffffffffffffffffffffffff1673ffffffffffffffffffffffffffffffffffffffff168152602001908152602001600020548461132290919063ffffffff16565b92506127856002600060058481548110612710577f4e487b7100000000000000000000000000000000000000000000000000000000600052603260045260246000fd5b9060005260206000200160009054906101000a900473ffffffffffffffffffffffffffffffffffffffff1673ffffffffffffffffffffffffffffffffffffffff1673ffffffffffffffffffffffffffffffffffffffff168152602001908152602001600020548361132290919063ffffffff16565b9150808061279290613196565b91505061249d565b506127b56402540be4006006546119b090919063ffffffff16565b8210156127d0576006546402540be4009350935050506127d9565b81819350935050505b9091565b600081836127eb919061308d565b905092915050565b6128088260065461132290919063ffffffff16565b6006819055506128238160075461133890919063ffffffff16565b6007819055505050565b60008135905061283c8161324e565b92915050565b60008135905061285181613265565b92915050565b6000813590506128668161327c565b92915050565b60006020828403121561287e57600080fd5b600061288c8482850161282d565b91505092915050565b600080604083850312156128a857600080fd5b60006128b68582860161282d565b92505060206128c78582860161282d565b9150509250929050565b6000806000606084860312156128e657600080fd5b60006128f48682870161282d565b93505060206129058682870161282d565b925050604061291686828701612857565b9150509250925092565b6000806040838503121561293357600080fd5b60006129418582860161282d565b925050602061295285828601612857565b9150509250929050565b60006020828403121561296e57600080fd5b600061297c84828501612857565b91505092915050565b6000806040838503121561299857600080fd5b60006129a685828601612857565b92505060206129b785828601612842565b9150509250929050565b6129ca8161311b565b82525050565b6129d98161312d565b82525050565b60006129ea82612fea565b6129f48185612ff5565b9350612a04818560208601613163565b612a0d8161323d565b840191505092915050565b6000612a25602383612ff5565b91507f45524332303a207472616e7366657220746f20746865207a65726f206164647260008301527f65737300000000000000000000000000000000000000000000000000000000006020830152604082019050919050565b6000612a8b602a83612ff5565b91507f416d6f756e74206d757374206265206c657373207468616e20746f74616c207260008301527f65666c656374696f6e73000000000000000000000000000000000000000000006020830152604082019050919050565b6000612af1602683612ff5565b91507f4f776e61626c653a206e6577206f776e657220697320746865207a65726f206160008301527f64647265737300000000000000000000000000000000000000000000000000006020830152604082019050919050565b6000612b57602283612ff5565b91507f45524332303a20617070726f766520746f20746865207a65726f20616464726560008301527f73730000000000000000000000000000000000000000000000000000000000006020830152604082019050919050565b6000612bbd601b83612ff5565b91507f4163636f756e7420697320616c7265616479206578636c7564656400000000006000830152602082019050919050565b6000612bfd601f83612ff5565b91507f416d6f756e74206d757374206265206c657373207468616e20737570706c79006000830152602082019050919050565b6000612c3d602083612ff5565b91507f4f776e61626c653a2063616c6c6572206973206e6f7420746865206f776e65726000830152602082019050919050565b6000612c7d602983612ff5565b91507f5472616e7366657220616d6f756e74206d75737420626520677265617465722060008301527f7468616e207a65726f00000000000000000000000000000000000000000000006020830152604082019050919050565b6000612ce3602583612ff5565b91507f45524332303a207472616e736665722066726f6d20746865207a65726f20616460008301527f64726573730000000000000000000000000000000000000000000000000000006020830152604082019050919050565b6000612d49602483612ff5565b91507f45524332303a20617070726f76652066726f6d20746865207a65726f2061646460008301527f72657373000000000000000000000000000000000000000000000000000000006020830152604082019050919050565b6000612daf602c83612ff5565b91507f4578636c75646564206164647265737365732063616e6e6f742063616c6c207460008301527f6869732066756e6374696f6e00000000000000000000000000000000000000006020830152604082019050919050565b612e1181613159565b82525050565b6000602082019050612e2c60008301846129c1565b92915050565b6000602082019050612e4760008301846129d0565b92915050565b60006020820190508181036000830152612e6781846129df565b905092915050565b60006020820190508181036000830152612e8881612a18565b9050919050565b60006020820190508181036000830152612ea881612a7e565b9050919050565b60006020820190508181036000830152612ec881612ae4565b9050919050565b60006020820190508181036000830152612ee881612b4a565b9050919050565b60006020820190508181036000830152612f0881612bb0565b9050919050565b60006020820190508181036000830152612f2881612bf0565b9050919050565b60006020820190508181036000830152612f4881612c30565b9050919050565b60006020820190508181036000830152612f6881612c70565b9050919050565b60006020820190508181036000830152612f8881612cd6565b9050919050565b60006020820190508181036000830152612fa881612d3c565b9050919050565b60006020820190508181036000830152612fc881612da2565b9050919050565b6000602082019050612fe46000830184612e08565b92915050565b600081519050919050565b600082825260208201905092915050565b600061301182613159565b915061301c83613159565b9250827fffffffffffffffffffffffffffffffffffffffffffffffffffffffffffffffff03821115613051576130506131df565b5b828201905092915050565b600061306782613159565b915061307283613159565b9250826130825761308161320e565b5b828204905092915050565b600061309882613159565b91506130a383613159565b9250817fffffffffffffffffffffffffffffffffffffffffffffffffffffffffffffffff04831182151516156130dc576130db6131df565b5b828202905092915050565b60006130f282613159565b91506130fd83613159565b9250828210156131105761310f6131df565b5b828203905092915050565b600061312682613139565b9050919050565b60008115159050919050565b600073ffffffffffffffffffffffffffffffffffffffff82169050919050565b6000819050919050565b60005b83811015613181578082015181840152602081019050613166565b83811115613190576000848401525b50505050565b60006131a182613159565b91507fffffffffffffffffffffffffffffffffffffffffffffffffffffffffffffffff8214156131d4576131d36131df565b5b600182019050919050565b7f4e487b7100000000000000000000000000000000000000000000000000000000600052601160045260246000fd5b7f4e487b7100000000000000000000000000000000000000000000000000000000600052601260045260246000fd5b6000601f19601f8301169050919050565b6132578161311b565b811461326257600080fd5b50565b61326e8161312d565b811461327957600080fd5b50565b61328581613159565b811461329057600080fd5b5056fe45524332303a207472616e7366657220616d6f756e74206578636565647320616c6c6f77616e636545524332303a2064656372656173656420616c6c6f77616e63652062656c6f77207a65726fa264697066735822122040a0ba361b85571d9cdc3387fa9ee9bcd97abdbcee5e4809da2fca8008a0900764736f6c63430008000033",
  "immutableReferences": {},
  "source": "// Welcome To NFT Antique art\r\n// In NFT Antique art you can create, collect, and trade Non-fungible Tokens.\r\n// 5% Tax (2.5% Burn // 2.5% back to Holders)\r\n// www.nftantiqueart.io\r\n\r\n\r\n// SPDX-License-Identifier: Unlicensed\r\n\r\npragma solidity ^0.8.0;\r\nimport \"@openzeppelin/contracts/utils/Context.sol\";\r\nimport \"@openzeppelin/contracts/token/ERC20/IERC20.sol\";\r\nimport \"@openzeppelin/contracts/utils/math/SafeMath.sol\";\r\nimport \"@openzeppelin/contracts/utils/Address.sol\";\r\nimport \"@openzeppelin/contracts/access/Ownable.sol\";\r\n\r\ncontract NAAToken is Context, IERC20, Ownable {\r\n    using SafeMath for uint256;\r\n    using Address for address;\r\n\r\n    mapping (address => uint256) private _rOwned;\r\n    mapping (address => uint256) private _tOwned;\r\n    mapping (address => mapping (address => uint256)) private _allowances;\r\n\r\n    mapping (address => bool) private _isExcluded;\r\n    address[] private _excluded;\r\n   \r\n    uint256 private constant MAX = ~uint256(0);\r\n    uint256 private constant _tTotal = 1 * 10 * 10**9;\r\n    uint256 private _rTotal = (MAX - (MAX % _tTotal));\r\n    uint256 private _tFeeTotal;\r\n\r\n    string private _name = 'NFTAntiqueArt';\r\n    string private _symbol = 'NAA';\r\n    uint8 private _decimals = 9;\r\n\r\n    constructor () {\r\n        _rOwned[_msgSender()] = _rTotal;\r\n        emit Transfer(address(0), _msgSender(), _tTotal);\r\n    }\r\n\r\n\r\n    function totalSupply() public pure override returns (uint256) {\r\n        return _tTotal;\r\n    }\r\n\r\n    function balanceOf(address account) public view override returns (uint256) {\r\n        if (_isExcluded[account]) return _tOwned[account];\r\n        return tokenFromReflection(_rOwned[account]);\r\n    }\r\n\r\n    function transfer(address recipient, uint256 amount) public override returns (bool) {\r\n        _transfer(_msgSender(), recipient, amount);\r\n        return true;\r\n    }\r\n\r\n    function allowance(address owner, address spender) public view override returns (uint256) {\r\n        return _allowances[owner][spender];\r\n    }\r\n\r\n    function approve(address spender, uint256 amount) public override returns (bool) {\r\n        _approve(_msgSender(), spender, amount);\r\n        return true;\r\n    }\r\n\r\n    function transferFrom(address sender, address recipient, uint256 amount) public override returns (bool) {\r\n        _transfer(sender, recipient, amount);\r\n        _approve(sender, _msgSender(), _allowances[sender][_msgSender()].sub(amount, \"ERC20: transfer amount exceeds allowance\"));\r\n        return true;\r\n    }\r\n\r\n    function increaseAllowance(address spender, uint256 addedValue) public virtual returns (bool) {\r\n        _approve(_msgSender(), spender, _allowances[_msgSender()][spender].add(addedValue));\r\n        return true;\r\n    }\r\n\r\n    function decreaseAllowance(address spender, uint256 subtractedValue) public virtual returns (bool) {\r\n        _approve(_msgSender(), spender, _allowances[_msgSender()][spender].sub(subtractedValue, \"ERC20: decreased allowance below zero\"));\r\n        return true;\r\n    }\r\n\r\n    function isExcluded(address account) public view returns (bool) {\r\n        return _isExcluded[account];\r\n    }\r\n\r\n    function totalFees() public view returns (uint256) {\r\n        return _tFeeTotal;\r\n    }\r\n\r\n    function reflect(uint256 tAmount) public {\r\n        address sender = _msgSender();\r\n        require(!_isExcluded[sender], \"Excluded addresses cannot call this function\");\r\n        (uint256 rAmount,,,,) = _getValues(tAmount);\r\n        _rOwned[sender] = _rOwned[sender].sub(rAmount);\r\n        _rTotal = _rTotal.sub(rAmount);\r\n        _tFeeTotal = _tFeeTotal.add(tAmount);\r\n    }\r\n\r\n    function reflectionFromToken(uint256 tAmount, bool deductTransferFee) public view returns(uint256) {\r\n        require(tAmount <= _tTotal, \"Amount must be less than supply\");\r\n        if (!deductTransferFee) {\r\n            (uint256 rAmount,,,,) = _getValues(tAmount);\r\n            return rAmount;\r\n        } else {\r\n            (,uint256 rTransferAmount,,,) = _getValues(tAmount);\r\n            return rTransferAmount;\r\n        }\r\n    }\r\n\r\n    function tokenFromReflection(uint256 rAmount) public view returns(uint256) {\r\n        require(rAmount <= _rTotal, \"Amount must be less than total reflections\");\r\n        uint256 currentRate =  _getRate();\r\n        return rAmount.div(currentRate);\r\n    }\r\n\r\n    function excludeAccount(address account) external onlyOwner() {\r\n        require(!_isExcluded[account], \"Account is already excluded\");\r\n        if(_rOwned[account] > 0) {\r\n            _tOwned[account] = tokenFromReflection(_rOwned[account]);\r\n        }\r\n        _isExcluded[account] = true;\r\n        _excluded.push(account);\r\n    }\r\n\r\n    function includeAccount(address account) external onlyOwner() {\r\n        require(_isExcluded[account], \"Account is already excluded\");\r\n        for (uint256 i = 0; i < _excluded.length; i++) {\r\n            if (_excluded[i] == account) {\r\n                _excluded[i] = _excluded[_excluded.length - 1];\r\n                _tOwned[account] = 0;\r\n                _isExcluded[account] = false;\r\n                _excluded.pop();\r\n                break;\r\n            }\r\n        }\r\n    }\r\n\r\n    function _approve(address owner, address spender, uint256 amount) private {\r\n        require(owner != address(0), \"ERC20: approve from the zero address\");\r\n        require(spender != address(0), \"ERC20: approve to the zero address\");\r\n\r\n        _allowances[owner][spender] = amount;\r\n        emit Approval(owner, spender, amount);\r\n    }\r\n\r\n    function _transfer(address sender, address recipient, uint256 amount) private {\r\n        require(sender != address(0), \"ERC20: transfer from the zero address\");\r\n        require(recipient != address(0), \"ERC20: transfer to the zero address\");\r\n        require(amount > 0, \"Transfer amount must be greater than zero\");\r\n        if (_isExcluded[sender] && !_isExcluded[recipient]) {\r\n            _transferFromExcluded(sender, recipient, amount);\r\n        } else if (!_isExcluded[sender] && _isExcluded[recipient]) {\r\n            _transferToExcluded(sender, recipient, amount);\r\n        } else if (!_isExcluded[sender] && !_isExcluded[recipient]) {\r\n            _transferStandard(sender, recipient, amount);\r\n        } else if (_isExcluded[sender] && _isExcluded[recipient]) {\r\n            _transferBothExcluded(sender, recipient, amount);\r\n        } else {\r\n            _transferStandard(sender, recipient, amount);\r\n        }\r\n    }\r\n\r\n    function _transferStandard(address sender, address recipient, uint256 tAmount) private {\r\n        (uint256 rAmount, uint256 rTransferAmount, uint256 rFee, uint256 tTransferAmount, uint256 tFee) = _getValues(tAmount);\r\n        _rOwned[sender] = _rOwned[sender].sub(rAmount);\r\n        _rOwned[recipient] = _rOwned[recipient].add(rTransferAmount);       \r\n        _reflectFee(rFee, tFee);\r\n        emit Transfer(sender, recipient, tTransferAmount);\r\n    }\r\n\r\n    function _transferToExcluded(address sender, address recipient, uint256 tAmount) private {\r\n        (uint256 rAmount, uint256 rTransferAmount, uint256 rFee, uint256 tTransferAmount, uint256 tFee) = _getValues(tAmount);\r\n        _rOwned[sender] = _rOwned[sender].sub(rAmount);\r\n        _tOwned[recipient] = _tOwned[recipient].add(tTransferAmount);\r\n        _rOwned[recipient] = _rOwned[recipient].add(rTransferAmount);           \r\n        _reflectFee(rFee, tFee);\r\n        emit Transfer(sender, recipient, tTransferAmount);\r\n    }\r\n\r\n    function _transferFromExcluded(address sender, address recipient, uint256 tAmount) private {\r\n        (uint256 rAmount, uint256 rTransferAmount, uint256 rFee, uint256 tTransferAmount, uint256 tFee) = _getValues(tAmount);\r\n        _tOwned[sender] = _tOwned[sender].sub(tAmount);\r\n        _rOwned[sender] = _rOwned[sender].sub(rAmount);\r\n        _rOwned[recipient] = _rOwned[recipient].add(rTransferAmount);   \r\n        _reflectFee(rFee, tFee);\r\n        emit Transfer(sender, recipient, tTransferAmount);\r\n    }\r\n\r\n    function _transferBothExcluded(address sender, address recipient, uint256 tAmount) private {\r\n        (uint256 rAmount, uint256 rTransferAmount, uint256 rFee, uint256 tTransferAmount, uint256 tFee) = _getValues(tAmount);\r\n        _tOwned[sender] = _tOwned[sender].sub(tAmount);\r\n        _rOwned[sender] = _rOwned[sender].sub(rAmount);\r\n        _tOwned[recipient] = _tOwned[recipient].add(tTransferAmount);\r\n        _rOwned[recipient] = _rOwned[recipient].add(rTransferAmount);        \r\n        _reflectFee(rFee, tFee);\r\n        emit Transfer(sender, recipient, tTransferAmount);\r\n    }\r\n\r\n    function _reflectFee(uint256 rFee, uint256 tFee) private {\r\n        _rTotal = _rTotal.sub(rFee);\r\n        _tFeeTotal = _tFeeTotal.add(tFee);\r\n    }\r\n\r\n    function _getValues(uint256 tAmount) private view returns (uint256, uint256, uint256, uint256, uint256) {\r\n        (uint256 tTransferAmount, uint256 tFee) = _getTValues(tAmount);\r\n        uint256 currentRate =  _getRate();\r\n        (uint256 rAmount, uint256 rTransferAmount, uint256 rFee) = _getRValues(tAmount, tFee, currentRate);\r\n        return (rAmount, rTransferAmount, rFee, tTransferAmount, tFee);\r\n    }\r\n\r\n    function _getTValues(uint256 tAmount) private pure returns (uint256, uint256) {\r\n        uint256 tFee = tAmount.div(100).mul(5);\r\n        uint256 tTransferAmount = tAmount.sub(tFee);\r\n        return (tTransferAmount, tFee);\r\n    }\r\n\r\n    function _getRValues(uint256 tAmount, uint256 tFee, uint256 currentRate) private pure returns (uint256, uint256, uint256) {\r\n        uint256 rAmount = tAmount.mul(currentRate);\r\n        uint256 rFee = tFee.mul(currentRate);\r\n        uint256 rTransferAmount = rAmount.sub(rFee);\r\n        return (rAmount, rTransferAmount, rFee);\r\n    }\r\n\r\n    function _getRate() private view returns(uint256) {\r\n        (uint256 rSupply, uint256 tSupply) = _getCurrentSupply();\r\n        return rSupply.div(tSupply);\r\n    }\r\n\r\n    function _getCurrentSupply() private view returns(uint256, uint256) {\r\n        uint256 rSupply = _rTotal;\r\n        uint256 tSupply = _tTotal;      \r\n        for (uint256 i = 0; i < _excluded.length; i++) {\r\n            if (_rOwned[_excluded[i]] > rSupply || _tOwned[_excluded[i]] > tSupply) return (_rTotal, _tTotal);\r\n            rSupply = rSupply.sub(_rOwned[_excluded[i]]);\r\n            tSupply = tSupply.sub(_tOwned[_excluded[i]]);\r\n        }\r\n        if (rSupply < _rTotal.div(_tTotal)) return (_rTotal, _tTotal);\r\n        return (rSupply, tSupply);\r\n    }\r\n\r\n    //recieve() external payable {}\r\n}",
  "sourcePath": "C:\\Users\\HP\\Documents\\react\\nft-antique-art\\contracts\\NAAToken.sol",
  "compiler": {
    "name": "solc",
    "version": "0.8.0+commit.c7dfd78e.Emscripten.clang"
  },
  "schemaVersion": "3.4.3",
  "updatedAt": "2021-10-24T01:46:41.108Z",
  "networkType": "ethereum",
  "devdoc": {
    "kind": "dev",
    "methods": {
      "allowance(address,address)": {
        "details": "Returns the remaining number of tokens that `spender` will be allowed to spend on behalf of `owner` through {transferFrom}. This is zero by default. This value changes when {approve} or {transferFrom} are called."
      },
      "approve(address,uint256)": {
        "details": "Sets `amount` as the allowance of `spender` over the caller's tokens. Returns a boolean value indicating whether the operation succeeded. IMPORTANT: Beware that changing an allowance with this method brings the risk that someone may use both the old and the new allowance by unfortunate transaction ordering. One possible solution to mitigate this race condition is to first reduce the spender's allowance to 0 and set the desired value afterwards: https://github.com/ethereum/EIPs/issues/20#issuecomment-263524729 Emits an {Approval} event."
      },
      "balanceOf(address)": {
        "details": "Returns the amount of tokens owned by `account`."
      },
      "owner()": {
        "details": "Returns the address of the current owner."
      },
      "renounceOwnership()": {
        "details": "Leaves the contract without owner. It will not be possible to call `onlyOwner` functions anymore. Can only be called by the current owner. NOTE: Renouncing ownership will leave the contract without an owner, thereby removing any functionality that is only available to the owner."
      },
      "totalSupply()": {
        "details": "Returns the amount of tokens in existence."
      },
      "transfer(address,uint256)": {
        "details": "Moves `amount` tokens from the caller's account to `recipient`. Returns a boolean value indicating whether the operation succeeded. Emits a {Transfer} event."
      },
      "transferFrom(address,address,uint256)": {
        "details": "Moves `amount` tokens from `sender` to `recipient` using the allowance mechanism. `amount` is then deducted from the caller's allowance. Returns a boolean value indicating whether the operation succeeded. Emits a {Transfer} event."
      },
      "transferOwnership(address)": {
        "details": "Transfers ownership of the contract to a new account (`newOwner`). Can only be called by the current owner."
      }
    },
    "version": 1
  },
  "userdoc": {
    "kind": "user",
    "methods": {},
    "version": 1
  }
}