{
  "contractName": "Presale",
  "abi": [
    {
      "inputs": [
        {
          "internalType": "uint256",
          "name": "rate",
          "type": "uint256"
        },
        {
          "internalType": "address payable",
          "name": "wallet",
          "type": "address"
        },
        {
          "internalType": "contract IERC20",
          "name": "token",
          "type": "address"
        },
        {
          "internalType": "uint256",
          "name": "tokenDecimals",
          "type": "uint256"
        }
      ],
      "stateMutability": "nonpayable",
      "type": "constructor"
    },
    {
      "anonymous": false,
      "inputs": [
        {
          "indexed": true,
          "internalType": "address",
          "name": "previousOwner",
          "type": "address"
        },
        {
          "indexed": true,
          "internalType": "address",
          "name": "newOwner",
          "type": "address"
        }
      ],
      "name": "OwnershipTransferred",
      "type": "event"
    },
    {
      "anonymous": false,
      "inputs": [
        {
          "indexed": false,
          "internalType": "address",
          "name": "recipient",
          "type": "address"
        },
        {
          "indexed": false,
          "internalType": "uint256",
          "name": "amount",
          "type": "uint256"
        },
        {
          "indexed": false,
          "internalType": "uint256",
          "name": "date",
          "type": "uint256"
        }
      ],
      "name": "PresaleProcessed",
      "type": "event"
    },
    {
      "inputs": [],
      "name": "_admin",
      "outputs": [
        {
          "internalType": "address",
          "name": "",
          "type": "address"
        }
      ],
      "stateMutability": "view",
      "type": "function",
      "constant": true
    },
    {
      "inputs": [
        {
          "internalType": "address",
          "name": "",
          "type": "address"
        }
      ],
      "name": "_contributions",
      "outputs": [
        {
          "internalType": "uint256",
          "name": "",
          "type": "uint256"
        }
      ],
      "stateMutability": "view",
      "type": "function",
      "constant": true
    },
    {
      "inputs": [],
      "name": "_rate",
      "outputs": [
        {
          "internalType": "uint256",
          "name": "",
          "type": "uint256"
        }
      ],
      "stateMutability": "view",
      "type": "function",
      "constant": true
    },
    {
      "inputs": [],
      "name": "_token",
      "outputs": [
        {
          "internalType": "contract IERC20",
          "name": "",
          "type": "address"
        }
      ],
      "stateMutability": "view",
      "type": "function",
      "constant": true
    },
    {
      "inputs": [],
      "name": "_tokenDecimals",
      "outputs": [
        {
          "internalType": "uint256",
          "name": "",
          "type": "uint256"
        }
      ],
      "stateMutability": "view",
      "type": "function",
      "constant": true
    },
    {
      "inputs": [],
      "name": "_wallet",
      "outputs": [
        {
          "internalType": "address payable",
          "name": "",
          "type": "address"
        }
      ],
      "stateMutability": "view",
      "type": "function",
      "constant": true
    },
    {
      "inputs": [],
      "name": "_weiRaised",
      "outputs": [
        {
          "internalType": "uint256",
          "name": "",
          "type": "uint256"
        }
      ],
      "stateMutability": "view",
      "type": "function",
      "constant": true
    },
    {
      "inputs": [],
      "name": "availableTokens",
      "outputs": [
        {
          "internalType": "uint256",
          "name": "",
          "type": "uint256"
        }
      ],
      "stateMutability": "view",
      "type": "function",
      "constant": true
    },
    {
      "inputs": [],
      "name": "endICO",
      "outputs": [
        {
          "internalType": "uint256",
          "name": "",
          "type": "uint256"
        }
      ],
      "stateMutability": "view",
      "type": "function",
      "constant": true
    },
    {
      "inputs": [],
      "name": "hardCap",
      "outputs": [
        {
          "internalType": "uint256",
          "name": "",
          "type": "uint256"
        }
      ],
      "stateMutability": "view",
      "type": "function",
      "constant": true
    },
    {
      "inputs": [],
      "name": "maxPurchase",
      "outputs": [
        {
          "internalType": "uint256",
          "name": "",
          "type": "uint256"
        }
      ],
      "stateMutability": "view",
      "type": "function",
      "constant": true
    },
    {
      "inputs": [],
      "name": "minPurchase",
      "outputs": [
        {
          "internalType": "uint256",
          "name": "",
          "type": "uint256"
        }
      ],
      "stateMutability": "view",
      "type": "function",
      "constant": true
    },
    {
      "inputs": [],
      "name": "owner",
      "outputs": [
        {
          "internalType": "address",
          "name": "",
          "type": "address"
        }
      ],
      "stateMutability": "view",
      "type": "function",
      "constant": true
    },
    {
      "inputs": [],
      "name": "renounceOwnership",
      "outputs": [],
      "stateMutability": "nonpayable",
      "type": "function"
    },
    {
      "inputs": [],
      "name": "softCap",
      "outputs": [
        {
          "internalType": "uint256",
          "name": "",
          "type": "uint256"
        }
      ],
      "stateMutability": "view",
      "type": "function",
      "constant": true
    },
    {
      "inputs": [],
      "name": "stage",
      "outputs": [
        {
          "internalType": "enum Presale.PresaleStage",
          "name": "",
          "type": "uint8"
        }
      ],
      "stateMutability": "view",
      "type": "function",
      "constant": true
    },
    {
      "inputs": [
        {
          "internalType": "address",
          "name": "newOwner",
          "type": "address"
        }
      ],
      "name": "transferOwnership",
      "outputs": [],
      "stateMutability": "nonpayable",
      "type": "function"
    },
    {
      "stateMutability": "payable",
      "type": "receive",
      "payable": true
    },
    {
      "inputs": [
        {
          "internalType": "uint256",
          "name": "endDate",
          "type": "uint256"
        },
        {
          "internalType": "uint256",
          "name": "_minPurchase",
          "type": "uint256"
        },
        {
          "internalType": "uint256",
          "name": "_maxPurchase",
          "type": "uint256"
        },
        {
          "internalType": "uint256",
          "name": "_softCap",
          "type": "uint256"
        },
        {
          "internalType": "uint256",
          "name": "_hardCap",
          "type": "uint256"
        }
      ],
      "name": "startICO",
      "outputs": [],
      "stateMutability": "nonpayable",
      "type": "function"
    },
    {
      "inputs": [],
      "name": "stopICO",
      "outputs": [],
      "stateMutability": "nonpayable",
      "type": "function"
    },
    {
      "inputs": [
        {
          "internalType": "address",
          "name": "beneficiary",
          "type": "address"
        }
      ],
      "name": "buyTokens",
      "outputs": [],
      "stateMutability": "payable",
      "type": "function",
      "payable": true
    },
    {
      "inputs": [],
      "name": "withdraw",
      "outputs": [],
      "stateMutability": "nonpayable",
      "type": "function"
    },
    {
      "inputs": [
        {
          "internalType": "address",
          "name": "addr",
          "type": "address"
        }
      ],
      "name": "checkContribution",
      "outputs": [
        {
          "internalType": "uint256",
          "name": "",
          "type": "uint256"
        }
      ],
      "stateMutability": "view",
      "type": "function",
      "constant": true
    },
    {
      "inputs": [
        {
          "internalType": "uint256",
          "name": "newRate",
          "type": "uint256"
        }
      ],
      "name": "setRate",
      "outputs": [],
      "stateMutability": "nonpayable",
      "type": "function"
    },
    {
      "inputs": [
        {
          "internalType": "uint256",
          "name": "amount",
          "type": "uint256"
        }
      ],
      "name": "setAvailableTokens",
      "outputs": [],
      "stateMutability": "nonpayable",
      "type": "function"
    },
    {
      "inputs": [],
      "name": "weiRaised",
      "outputs": [
        {
          "internalType": "uint256",
          "name": "",
          "type": "uint256"
        }
      ],
      "stateMutability": "view",
      "type": "function",
      "constant": true
    },
    {
      "inputs": [
        {
          "internalType": "address payable",
          "name": "newWallet",
          "type": "address"
        }
      ],
      "name": "setWalletReceiver",
      "outputs": [],
      "stateMutability": "nonpayable",
      "type": "function"
    },
    {
      "inputs": [
        {
          "internalType": "uint256",
          "name": "value",
          "type": "uint256"
        }
      ],
      "name": "setHardCap",
      "outputs": [],
      "stateMutability": "nonpayable",
      "type": "function"
    },
    {
      "inputs": [
        {
          "internalType": "uint256",
          "name": "value",
          "type": "uint256"
        }
      ],
      "name": "setSoftCap",
      "outputs": [],
      "stateMutability": "nonpayable",
      "type": "function"
    },
    {
      "inputs": [
        {
          "internalType": "uint256",
          "name": "value",
          "type": "uint256"
        }
      ],
      "name": "setMaxPurchase",
      "outputs": [],
      "stateMutability": "nonpayable",
      "type": "function"
    },
    {
      "inputs": [
        {
          "internalType": "uint256",
          "name": "value",
          "type": "uint256"
        }
      ],
      "name": "setMinPurchase",
      "outputs": [],
      "stateMutability": "nonpayable",
      "type": "function"
    },
    {
      "inputs": [
        {
          "internalType": "contract IERC20",
          "name": "tokenAddress",
          "type": "address"
        }
      ],
      "name": "takeTokens",
      "outputs": [],
      "stateMutability": "nonpayable",
      "type": "function"
    }
  ],
  "bytecode": "0x60806040526000600e60146101000a81548160ff0219169083600181111562000051577f4e487b7100000000000000000000000000000000000000000000000000000000600052602160045260246000fd5b02179055503480156200006357600080fd5b50604051620033b2380380620033b2833981810160405281019062000089919062000398565b6001600081905550620000b1620000a56200028560201b60201c565b6200028d60201b60201c565b60008411620000f7576040517f08c379a0000000000000000000000000000000000000000000000000000000008152600401620000ee906200055a565b60405180910390fd5b600073ffffffffffffffffffffffffffffffffffffffff168373ffffffffffffffffffffffffffffffffffffffff1614156200016a576040517f08c379a0000000000000000000000000000000000000000000000000000000008152600401620001619062000516565b60405180910390fd5b600073ffffffffffffffffffffffffffffffffffffffff168273ffffffffffffffffffffffffffffffffffffffff161415620001dd576040517f08c379a0000000000000000000000000000000000000000000000000000000008152600401620001d49062000538565b60405180910390fd5b83600b8190555082600e60006101000a81548173ffffffffffffffffffffffffffffffffffffffff021916908373ffffffffffffffffffffffffffffffffffffffff16021790555081600460006101000a81548173ffffffffffffffffffffffffffffffffffffffff021916908373ffffffffffffffffffffffffffffffffffffffff1602179055508060126200027591906200058d565b600c8190555050505050620006ab565b600033905090565b6000600160009054906101000a900473ffffffffffffffffffffffffffffffffffffffff16905081600160006101000a81548173ffffffffffffffffffffffffffffffffffffffff021916908373ffffffffffffffffffffffffffffffffffffffff1602179055508173ffffffffffffffffffffffffffffffffffffffff168173ffffffffffffffffffffffffffffffffffffffff167f8be0079c531659141344cd1fd0a4f28419497f9722a3daafe3b4186f6b6457e060405160405180910390a35050565b60008151905062000364816200065d565b92915050565b6000815190506200037b8162000677565b92915050565b600081519050620003928162000691565b92915050565b60008060008060808587031215620003af57600080fd5b6000620003bf8782880162000381565b9450506020620003d28782880162000353565b9350506040620003e5878288016200036a565b9250506060620003f88782880162000381565b91505092959194509250565b6000620004136024836200057c565b91507f5072652d53616c653a2077616c6c657420697320746865207a65726f2061646460008301527f72657373000000000000000000000000000000000000000000000000000000006020830152604082019050919050565b60006200047b6023836200057c565b91507f5072652d53616c653a20746f6b656e20697320746865207a65726f206164647260008301527f65737300000000000000000000000000000000000000000000000000000000006020830152604082019050919050565b6000620004e36013836200057c565b91507f5072652d53616c653a20726174652069732030000000000000000000000000006000830152602082019050919050565b60006020820190508181036000830152620005318162000404565b9050919050565b6000602082019050818103600083015262000553816200046c565b9050919050565b600060208201905081810360008301526200057581620004d4565b9050919050565b600082825260208201905092915050565b60006200059a8262000624565b9150620005a78362000624565b925082821015620005bd57620005bc6200062e565b5b828203905092915050565b6000620005d58262000604565b9050919050565b6000620005e98262000604565b9050919050565b6000620005fd82620005c8565b9050919050565b600073ffffffffffffffffffffffffffffffffffffffff82169050919050565b6000819050919050565b7f4e487b7100000000000000000000000000000000000000000000000000000000600052601160045260246000fd5b6200066881620005dc565b81146200067457600080fd5b50565b6200068281620005f0565b81146200068e57600080fd5b50565b6200069c8162000624565b8114620006a857600080fd5b50565b612cf780620006bb6000396000f3fe6080604052600436106101dc5760003560e01c8063906a26e011610102578063d5cf5c7211610095578063ecd0c0c311610064578063ecd0c0c3146106aa578063f2fde38b146106d5578063f6d893ec146106fe578063fb86a4041461072757610253565b8063d5cf5c7214610613578063e3cef7a11461063c578063e8307d0014610665578063ec8ac4d81461068e57610253565b8063c040e6b8116100d1578063c040e6b81461057f578063c8e569a8146105aa578063d18d944b146105c1578063d572d5f7146105ea57610253565b8063906a26e0146104c157806394a5aa8d146104ec578063977b055b14610517578063ab0ced0e1461054257610253565b80634042b66f1161017a5780637118974211610149578063711897421461042b578063715018a61461045457806383bebced1461046b5780638da5cb5b1461049657610253565b80634042b66f1461037f5780634f248409146103aa578063610757e4146103d557806369bb4dc21461040057610253565b806330ca1387116101b657806330ca1387146102e957806333b5b62e1461031457806334fcf4371461033f5780633ccfd60b1461036857610253565b806301bc45c9146102585780631e6a610d14610283578063298b6a9f146102c057610253565b366102535760006008541180156101f4575060085442105b1561020e57610209610204610752565b61075a565b610251565b60006008819055506040517f08c379a000000000000000000000000000000000000000000000000000000000815260040161024890612743565b60405180910390fd5b005b600080fd5b34801561026457600080fd5b5061026d61093e565b60405161027a91906124ce565b60405180910390f35b34801561028f57600080fd5b506102aa60048036038101906102a59190611dc9565b610964565b6040516102b79190612803565b60405180910390f35b3480156102cc57600080fd5b506102e760048036038101906102e29190611ebf565b61097c565b005b3480156102f557600080fd5b506102fe610c75565b60405161030b9190612803565b60405180910390f35b34801561032057600080fd5b50610329610c7b565b6040516103369190612803565b60405180910390f35b34801561034b57600080fd5b5061036660048036038101906103619190611e6d565b610c81565b005b34801561037457600080fd5b5061037d610d4b565b005b34801561038b57600080fd5b50610394610eb9565b6040516103a19190612803565b60405180910390f35b3480156103b657600080fd5b506103bf610ec3565b6040516103cc9190612803565b60405180910390f35b3480156103e157600080fd5b506103ea610ec9565b6040516103f791906124e9565b60405180910390f35b34801561040c57600080fd5b50610415610eef565b6040516104229190612803565b60405180910390f35b34801561043757600080fd5b50610452600480360381019061044d9190611e6d565b610ef5565b005b34801561046057600080fd5b50610469610f7b565b005b34801561047757600080fd5b50610480611003565b60405161048d9190612803565b60405180910390f35b3480156104a257600080fd5b506104ab611009565b6040516104b891906124ce565b60405180910390f35b3480156104cd57600080fd5b506104d6611033565b6040516104e39190612803565b60405180910390f35b3480156104f857600080fd5b50610501611039565b60405161050e9190612803565b60405180910390f35b34801561052357600080fd5b5061052c61103f565b6040516105399190612803565b60405180910390f35b34801561054e57600080fd5b5061056960048036038101906105649190611dc9565b611045565b6040516105769190612803565b60405180910390f35b34801561058b57600080fd5b5061059461108e565b6040516105a191906125a8565b60405180910390f35b3480156105b657600080fd5b506105bf6110a1565b005b3480156105cd57600080fd5b506105e860048036038101906105e39190611e6d565b61119b565b005b3480156105f657600080fd5b50610611600480360381019061060c9190611df2565b611221565b005b34801561061f57600080fd5b5061063a60048036038101906106359190611e6d565b6112e1565b005b34801561064857600080fd5b50610663600480360381019061065e9190611e44565b611367565b005b34801561067157600080fd5b5061068c60048036038101906106879190611e6d565b6115b1565b005b6106a860048036038101906106a39190611dc9565b61075a565b005b3480156106b657600080fd5b506106bf611637565b6040516106cc919061258d565b60405180910390f35b3480156106e157600080fd5b506106fc60048036038101906106f79190611dc9565b61165d565b005b34801561070a57600080fd5b5061072560048036038101906107209190611e6d565b611755565b005b34801561073357600080fd5b5061073c61181f565b6040516107499190612803565b60405180910390f35b600033905090565b600260005414156107a0576040517f08c379a0000000000000000000000000000000000000000000000000000000008152600401610797906127a3565b60405180910390fd5b600260008190555060006008541180156107bb575060085442105b80156107c957506000600a54115b610808576040517f08c379a00000000000000000000000000000000000000000000000000000000081526004016107ff906126a3565b60405180910390fd5b60003490506108178282611825565b600061082282611a0a565b905061083982600d54611a4890919063ffffffff16565b600d8190555080600a5461084d9190612a81565b600a819055506108a582600260008673ffffffffffffffffffffffffffffffffffffffff1673ffffffffffffffffffffffffffffffffffffffff16815260200190815260200160002054611a4890919063ffffffff16565b600260008573ffffffffffffffffffffffffffffffffffffffff1673ffffffffffffffffffffffffffffffffffffffff1681526020019081526020016000208190555060006108f384611a5e565b90507f1a1779f411d1f1b6d57f0264ea788d896e00824e1a7358740fda25ddf134f9be84824260405161092893929190612556565b60405180910390a1505050600160008190555050565b600360009054906101000a900473ffffffffffffffffffffffffffffffffffffffff1681565b60026020528060005260406000206000915090505481565b610984610752565b73ffffffffffffffffffffffffffffffffffffffff166109a2611009565b73ffffffffffffffffffffffffffffffffffffffff16146109f8576040517f08c379a00000000000000000000000000000000000000000000000000000000081526004016109ef90612703565b60405180910390fd5b4260085410610a3c576040517f08c379a0000000000000000000000000000000000000000000000000000000008152600401610a3390612783565b60405180910390fd5b600460009054906101000a900473ffffffffffffffffffffffffffffffffffffffff1673ffffffffffffffffffffffffffffffffffffffff166370a08231306040518263ffffffff1660e01b8152600401610a9791906124ce565b60206040518083038186803b158015610aaf57600080fd5b505afa158015610ac3573d6000803e3d6000fd5b505050506040513d601f19601f82011682018060405250810190610ae79190611e96565b600a81905550428511610b2f576040517f08c379a0000000000000000000000000000000000000000000000000000000008152600401610b2690612643565b60405180910390fd5b60075460095410610b75576040517f08c379a0000000000000000000000000000000000000000000000000000000008152600401610b6c906125c3565b60405180910390fd5b60065460055410610bbb576040517f08c379a0000000000000000000000000000000000000000000000000000000008152600401610bb290612683565b60405180910390fd5b6000600a5411610c00576040517f08c379a0000000000000000000000000000000000000000000000000000000008152600401610bf790612603565b60405180910390fd5b60008411610c43576040517f08c379a0000000000000000000000000000000000000000000000000000000008152600401610c3a906126c3565b60405180910390fd5b84600881905550836005819055508260068190555081600981905550806007819055506000600d819055505050505050565b600c5481565b60055481565b610c89610752565b73ffffffffffffffffffffffffffffffffffffffff16610ca7611009565b73ffffffffffffffffffffffffffffffffffffffff1614610cfd576040517f08c379a0000000000000000000000000000000000000000000000000000000008152600401610cf490612703565b60405180910390fd5b4260085410610d41576040517f08c379a0000000000000000000000000000000000000000000000000000000008152600401610d3890612783565b60405180910390fd5b80600b8190555050565b610d53610752565b73ffffffffffffffffffffffffffffffffffffffff16610d71611009565b73ffffffffffffffffffffffffffffffffffffffff1614610dc7576040517f08c379a0000000000000000000000000000000000000000000000000000000008152600401610dbe90612703565b60405180910390fd5b4260085410610e0b576040517f08c379a0000000000000000000000000000000000000000000000000000000008152600401610e0290612783565b60405180910390fd5b60004711610e4e576040517f08c379a0000000000000000000000000000000000000000000000000000000008152600401610e45906127e3565b60405180910390fd5b600e60009054906101000a900473ffffffffffffffffffffffffffffffffffffffff1673ffffffffffffffffffffffffffffffffffffffff166108fc479081150290604051600060405180830381858888f19350505050158015610eb6573d6000803e3d6000fd5b50565b6000600d54905090565b60085481565b600e60009054906101000a900473ffffffffffffffffffffffffffffffffffffffff1681565b600a5481565b610efd610752565b73ffffffffffffffffffffffffffffffffffffffff16610f1b611009565b73ffffffffffffffffffffffffffffffffffffffff1614610f71576040517f08c379a0000000000000000000000000000000000000000000000000000000008152600401610f6890612703565b60405180910390fd5b8060068190555050565b610f83610752565b73ffffffffffffffffffffffffffffffffffffffff16610fa1611009565b73ffffffffffffffffffffffffffffffffffffffff1614610ff7576040517f08c379a0000000000000000000000000000000000000000000000000000000008152600401610fee90612703565b60405180910390fd5b6110016000611bee565b565b600b5481565b6000600160009054906101000a900473ffffffffffffffffffffffffffffffffffffffff16905090565b60095481565b600d5481565b60065481565b6000600260008373ffffffffffffffffffffffffffffffffffffffff1673ffffffffffffffffffffffffffffffffffffffff168152602001908152602001600020549050919050565b600e60149054906101000a900460ff1681565b6110a9610752565b73ffffffffffffffffffffffffffffffffffffffff166110c7611009565b73ffffffffffffffffffffffffffffffffffffffff161461111d576040517f08c379a000000000000000000000000000000000000000000000000000000000815260040161111490612703565b60405180910390fd5b6000600854118015611130575060085442105b801561113e57506000600a54115b61117d576040517f08c379a0000000000000000000000000000000000000000000000000000000008152600401611174906126a3565b60405180910390fd5b6000600881905550600954600d541061119957611198611cb4565b5b565b6111a3610752565b73ffffffffffffffffffffffffffffffffffffffff166111c1611009565b73ffffffffffffffffffffffffffffffffffffffff1614611217576040517f08c379a000000000000000000000000000000000000000000000000000000000815260040161120e90612703565b60405180910390fd5b8060078190555050565b611229610752565b73ffffffffffffffffffffffffffffffffffffffff16611247611009565b73ffffffffffffffffffffffffffffffffffffffff161461129d576040517f08c379a000000000000000000000000000000000000000000000000000000000815260040161129490612703565b60405180910390fd5b80600e60006101000a81548173ffffffffffffffffffffffffffffffffffffffff021916908373ffffffffffffffffffffffffffffffffffffffff16021790555050565b6112e9610752565b73ffffffffffffffffffffffffffffffffffffffff16611307611009565b73ffffffffffffffffffffffffffffffffffffffff161461135d576040517f08c379a000000000000000000000000000000000000000000000000000000000815260040161135490612703565b60405180910390fd5b8060098190555050565b61136f610752565b73ffffffffffffffffffffffffffffffffffffffff1661138d611009565b73ffffffffffffffffffffffffffffffffffffffff16146113e3576040517f08c379a00000000000000000000000000000000000000000000000000000000081526004016113da90612703565b60405180910390fd5b4260085410611427576040517f08c379a000000000000000000000000000000000000000000000000000000000815260040161141e90612783565b60405180910390fd5b600081905060008173ffffffffffffffffffffffffffffffffffffffff166370a08231306040518263ffffffff1660e01b815260040161146791906124ce565b60206040518083038186803b15801561147f57600080fd5b505afa158015611493573d6000803e3d6000fd5b505050506040513d601f19601f820116820180604052508101906114b79190611e96565b9050600081116114fc576040517f08c379a00000000000000000000000000000000000000000000000000000000081526004016114f390612723565b60405180910390fd5b8173ffffffffffffffffffffffffffffffffffffffff1663a9059cbb600e60009054906101000a900473ffffffffffffffffffffffffffffffffffffffff16836040518363ffffffff1660e01b8152600401611559929190612504565b602060405180830381600087803b15801561157357600080fd5b505af1158015611587573d6000803e3d6000fd5b505050506040513d601f19601f820116820180604052508101906115ab9190611e1b565b50505050565b6115b9610752565b73ffffffffffffffffffffffffffffffffffffffff166115d7611009565b73ffffffffffffffffffffffffffffffffffffffff161461162d576040517f08c379a000000000000000000000000000000000000000000000000000000000815260040161162490612703565b60405180910390fd5b8060058190555050565b600460009054906101000a900473ffffffffffffffffffffffffffffffffffffffff1681565b611665610752565b73ffffffffffffffffffffffffffffffffffffffff16611683611009565b73ffffffffffffffffffffffffffffffffffffffff16146116d9576040517f08c379a00000000000000000000000000000000000000000000000000000000081526004016116d090612703565b60405180910390fd5b600073ffffffffffffffffffffffffffffffffffffffff168173ffffffffffffffffffffffffffffffffffffffff161415611749576040517f08c379a000000000000000000000000000000000000000000000000000000000815260040161174090612623565b60405180910390fd5b61175281611bee565b50565b61175d610752565b73ffffffffffffffffffffffffffffffffffffffff1661177b611009565b73ffffffffffffffffffffffffffffffffffffffff16146117d1576040517f08c379a00000000000000000000000000000000000000000000000000000000081526004016117c890612703565b60405180910390fd5b4260085410611815576040517f08c379a000000000000000000000000000000000000000000000000000000000815260040161180c90612783565b60405180910390fd5b80600a8190555050565b60075481565b600073ffffffffffffffffffffffffffffffffffffffff168273ffffffffffffffffffffffffffffffffffffffff161415611895576040517f08c379a000000000000000000000000000000000000000000000000000000000815260040161188c90612763565b60405180910390fd5b60008114156118d9576040517f08c379a00000000000000000000000000000000000000000000000000000000081526004016118d0906127c3565b60405180910390fd5b60055481101561191e576040517f08c379a0000000000000000000000000000000000000000000000000000000008152600401611915906126e3565b60405180910390fd5b60065461197382600260008673ffffffffffffffffffffffffffffffffffffffff1673ffffffffffffffffffffffffffffffffffffffff16815260200190815260200160002054611a4890919063ffffffff16565b11156119b4576040517f08c379a00000000000000000000000000000000000000000000000000000000081526004016119ab906125e3565b60405180910390fd5b60075481600d546119c5919061282f565b1115611a06576040517f08c379a00000000000000000000000000000000000000000000000000000000081526004016119fd90612663565b60405180910390fd5b5050565b6000611a41600c54600a611a1e9190612909565b611a33600b5485611d1f90919063ffffffff16565b611d3590919063ffffffff16565b9050919050565b60008183611a56919061282f565b905092915050565b60004260085410611aa4576040517f08c379a0000000000000000000000000000000000000000000000000000000008152600401611a9b90612783565b60405180910390fd5b6000611aee600260008573ffffffffffffffffffffffffffffffffffffffff1673ffffffffffffffffffffffffffffffffffffffff16815260200190815260200160002054611a0a565b90506000600260008573ffffffffffffffffffffffffffffffffffffffff1673ffffffffffffffffffffffffffffffffffffffff16815260200190815260200160002081905550600460009054906101000a900473ffffffffffffffffffffffffffffffffffffffff1673ffffffffffffffffffffffffffffffffffffffff1663a9059cbb84836040518363ffffffff1660e01b8152600401611b9292919061252d565b602060405180830381600087803b158015611bac57600080fd5b505af1158015611bc0573d6000803e3d6000fd5b505050506040513d601f19601f82011682018060405250810190611be49190611e1b565b5080915050919050565b6000600160009054906101000a900473ffffffffffffffffffffffffffffffffffffffff16905081600160006101000a81548173ffffffffffffffffffffffffffffffffffffffff021916908373ffffffffffffffffffffffffffffffffffffffff1602179055508173ffffffffffffffffffffffffffffffffffffffff168173ffffffffffffffffffffffffffffffffffffffff167f8be0079c531659141344cd1fd0a4f28419497f9722a3daafe3b4186f6b6457e060405160405180910390a35050565b600e60009054906101000a900473ffffffffffffffffffffffffffffffffffffffff1673ffffffffffffffffffffffffffffffffffffffff166108fc349081150290604051600060405180830381858888f19350505050158015611d1c573d6000803e3d6000fd5b50565b60008183611d2d9190612a27565b905092915050565b60008183611d439190612885565b905092915050565b600081359050611d5a81612c4e565b92915050565b600081359050611d6f81612c65565b92915050565b600081519050611d8481612c7c565b92915050565b600081359050611d9981612c93565b92915050565b600081359050611dae81612caa565b92915050565b600081519050611dc381612caa565b92915050565b600060208284031215611ddb57600080fd5b6000611de984828501611d4b565b91505092915050565b600060208284031215611e0457600080fd5b6000611e1284828501611d60565b91505092915050565b600060208284031215611e2d57600080fd5b6000611e3b84828501611d75565b91505092915050565b600060208284031215611e5657600080fd5b6000611e6484828501611d8a565b91505092915050565b600060208284031215611e7f57600080fd5b6000611e8d84828501611d9f565b91505092915050565b600060208284031215611ea857600080fd5b6000611eb684828501611db4565b91505092915050565b600080600080600060a08688031215611ed757600080fd5b6000611ee588828901611d9f565b9550506020611ef688828901611d9f565b9450506040611f0788828901611d9f565b9350506060611f1888828901611d9f565b9250506080611f2988828901611d9f565b9150509295509295909350565b611f3f81612b34565b82525050565b611f4e81612ac7565b82525050565b611f5d81612ab5565b82525050565b611f6c81612b46565b82525050565b611f7b81612b6a565b82525050565b6000611f8e60228361281e565b91507f536f6674636170206d757374206265206c6f776572207468616e20486172646360008301527f61700000000000000000000000000000000000000000000000000000000000006020830152604082019050919050565b6000611ff460208361281e565b91507f63616e277420627579206d6f7265207468616e3a206d617850757263686173656000830152602082019050919050565b6000612034601b8361281e565b91507f617661696c61626c65546f6b656e73206d757374206265203e203000000000006000830152602082019050919050565b600061207460268361281e565b91507f4f776e61626c653a206e6577206f776e657220697320746865207a65726f206160008301527f64647265737300000000000000000000000000000000000000000000000000006020830152604082019050919050565b60006120da60168361281e565b91507f6475726174696f6e2073686f756c64206265203e2030000000000000000000006000830152602082019050919050565b600061211a60108361281e565b91507f48617264204361702072656163686564000000000000000000000000000000006000830152602082019050919050565b600061215a602a8361281e565b91507f6d696e5075726368617365206d757374206265206c6f776572207468616e206d60008301527f61785075726368617365000000000000000000000000000000000000000000006020830152604082019050919050565b60006121c060128361281e565b91507f49434f206d7573742062652061637469766500000000000000000000000000006000830152602082019050919050565b600061220060178361281e565b91507f5f6d696e50757263686173652073686f756c64203e20300000000000000000006000830152602082019050919050565b600061224060228361281e565b91507f6861766520746f2073656e64206174206c656173743a206d696e50757263686160008301527f73650000000000000000000000000000000000000000000000000000000000006020830152604082019050919050565b60006122a660208361281e565b91507f4f776e61626c653a2063616c6c6572206973206e6f7420746865206f776e65726000830152602082019050919050565b60006122e660138361281e565b91507f4245502d32302062616c616e63652069732030000000000000000000000000006000830152602082019050919050565b600061232660128361281e565b91507f5072652d53616c6520697320636c6f73656400000000000000000000000000006000830152602082019050919050565b6000612366602a8361281e565b91507f43726f776473616c653a2062656e656669636961727920697320746865207a6560008301527f726f2061646472657373000000000000000000000000000000000000000000006020830152604082019050919050565b60006123cc60188361281e565b91507f49434f2073686f756c64206e6f742062652061637469766500000000000000006000830152602082019050919050565b600061240c601f8361281e565b91507f5265656e7472616e637947756172643a207265656e7472616e742063616c6c006000830152602082019050919050565b600061244c60198361281e565b91507f43726f776473616c653a20776569416d6f756e742069732030000000000000006000830152602082019050919050565b600061248c60158361281e565b91507f436f6e747261637420686173206e6f206d6f6e657900000000000000000000006000830152602082019050919050565b6124c881612b2a565b82525050565b60006020820190506124e36000830184611f54565b92915050565b60006020820190506124fe6000830184611f45565b92915050565b60006040820190506125196000830185611f36565b61252660208301846124bf565b9392505050565b60006040820190506125426000830185611f54565b61254f60208301846124bf565b9392505050565b600060608201905061256b6000830186611f54565b61257860208301856124bf565b61258560408301846124bf565b949350505050565b60006020820190506125a26000830184611f63565b92915050565b60006020820190506125bd6000830184611f72565b92915050565b600060208201905081810360008301526125dc81611f81565b9050919050565b600060208201905081810360008301526125fc81611fe7565b9050919050565b6000602082019050818103600083015261261c81612027565b9050919050565b6000602082019050818103600083015261263c81612067565b9050919050565b6000602082019050818103600083015261265c816120cd565b9050919050565b6000602082019050818103600083015261267c8161210d565b9050919050565b6000602082019050818103600083015261269c8161214d565b9050919050565b600060208201905081810360008301526126bc816121b3565b9050919050565b600060208201905081810360008301526126dc816121f3565b9050919050565b600060208201905081810360008301526126fc81612233565b9050919050565b6000602082019050818103600083015261271c81612299565b9050919050565b6000602082019050818103600083015261273c816122d9565b9050919050565b6000602082019050818103600083015261275c81612319565b9050919050565b6000602082019050818103600083015261277c81612359565b9050919050565b6000602082019050818103600083015261279c816123bf565b9050919050565b600060208201905081810360008301526127bc816123ff565b9050919050565b600060208201905081810360008301526127dc8161243f565b9050919050565b600060208201905081810360008301526127fc8161247f565b9050919050565b600060208201905061281860008301846124bf565b92915050565b600082825260208201905092915050565b600061283a82612b2a565b915061284583612b2a565b9250827fffffffffffffffffffffffffffffffffffffffffffffffffffffffffffffffff0382111561287a57612879612ba0565b5b828201905092915050565b600061289082612b2a565b915061289b83612b2a565b9250826128ab576128aa612bcf565b5b828204905092915050565b6000808291508390505b6001851115612900578086048111156128dc576128db612ba0565b5b60018516156128eb5780820291505b80810290506128f985612c2d565b94506128c0565b94509492505050565b600061291482612b2a565b915061291f83612b2a565b925061294c7fffffffffffffffffffffffffffffffffffffffffffffffffffffffffffffffff8484612954565b905092915050565b6000826129645760019050612a20565b816129725760009050612a20565b81600181146129885760028114612992576129c1565b6001915050612a20565b60ff8411156129a4576129a3612ba0565b5b8360020a9150848211156129bb576129ba612ba0565b5b50612a20565b5060208310610133831016604e8410600b84101617156129f65782820a9050838111156129f1576129f0612ba0565b5b612a20565b612a0384848460016128b6565b92509050818404811115612a1a57612a19612ba0565b5b81810290505b9392505050565b6000612a3282612b2a565b9150612a3d83612b2a565b9250817fffffffffffffffffffffffffffffffffffffffffffffffffffffffffffffffff0483118215151615612a7657612a75612ba0565b5b828202905092915050565b6000612a8c82612b2a565b9150612a9783612b2a565b925082821015612aaa57612aa9612ba0565b5b828203905092915050565b6000612ac082612b0a565b9050919050565b6000612ad282612b0a565b9050919050565b60008115159050919050565b6000612af082612ab5565b9050919050565b6000819050612b0582612c3a565b919050565b600073ffffffffffffffffffffffffffffffffffffffff82169050919050565b6000819050919050565b6000612b3f82612b7c565b9050919050565b6000612b5182612b58565b9050919050565b6000612b6382612b0a565b9050919050565b6000612b7582612af7565b9050919050565b6000612b8782612b8e565b9050919050565b6000612b9982612b0a565b9050919050565b7f4e487b7100000000000000000000000000000000000000000000000000000000600052601160045260246000fd5b7f4e487b7100000000000000000000000000000000000000000000000000000000600052601260045260246000fd5b7f4e487b7100000000000000000000000000000000000000000000000000000000600052602160045260246000fd5b60008160011c9050919050565b60028110612c4b57612c4a612bfe565b5b50565b612c5781612ab5565b8114612c6257600080fd5b50565b612c6e81612ac7565b8114612c7957600080fd5b50565b612c8581612ad9565b8114612c9057600080fd5b50565b612c9c81612ae5565b8114612ca757600080fd5b50565b612cb381612b2a565b8114612cbe57600080fd5b5056fea26469706673582212204dacec4d3b98d780ab7a4312c520a1044b222e0762558c27b6885894cfc36b0b64736f6c63430008000033",
  "immutableReferences": {},
  "source": "// SPDX-License-Identifier: Unlicensed\r\n\r\npragma solidity ^0.8.0;\r\n\r\nimport \"@openzeppelin/contracts/utils/Context.sol\";\r\nimport \"@openzeppelin/contracts/access/Ownable.sol\";\r\nimport '@openzeppelin/contracts/security/ReentrancyGuard.sol';\r\nimport \"@openzeppelin/contracts/utils/math/SafeMath.sol\";\r\nimport '@openzeppelin/contracts/token/ERC20/IERC20.sol';\r\n\r\ncontract Presale is ReentrancyGuard, Context, Ownable{\r\n  using SafeMath for uint256;\r\n  \r\n  mapping (address => uint256) public _contributions;\r\n  \r\n  address public _admin;\r\n  IERC20 public _token;\r\n  uint public minPurchase;\r\n  uint public maxPurchase;\r\n  uint public hardCap;\r\n  uint256 public endICO;\r\n  uint public softCap;\r\n  uint public availableTokens;\r\n  uint256 public _rate;\r\n  uint256 public _tokenDecimals;\r\n  uint256 public _weiRaised;\r\n  address payable public _wallet;\r\n  \r\n  enum PresaleStage {first, second}\r\n  \r\n  PresaleStage public stage = PresaleStage.first;\r\n\r\n  event PresaleProcessed(\r\n    address recipient,\r\n    uint amount,\r\n    uint date\r\n  );\r\n\r\n    constructor(uint256 rate, address payable wallet, IERC20 token, uint256 tokenDecimals) {\r\n        require(rate > 0, \"Pre-Sale: rate is 0\");\r\n        require(wallet != address(0), \"Pre-Sale: wallet is the zero address\");\r\n        require(address(token) != address(0), \"Pre-Sale: token is the zero address\");\r\n        \r\n    \r\n        _rate = rate;\r\n        _wallet = wallet;\r\n        _token = token;\r\n        _tokenDecimals = 18 - tokenDecimals;\r\n    }\r\n\r\n  \r\n    receive () external payable {\r\n        if(endICO > 0 && block.timestamp < endICO){\r\n            buyTokens(_msgSender());\r\n        }\r\n        else{\r\n            endICO = 0;\r\n            revert('Pre-Sale is closed');\r\n        }\r\n    }\r\n    \r\n    //Start Pre-Sale\r\n    function startICO(uint endDate, uint _minPurchase, uint _maxPurchase, uint _softCap, uint _hardCap) external onlyOwner icoNotActive() {\r\n        availableTokens = _token.balanceOf(address(this));\r\n        require(endDate > block.timestamp, 'duration should be > 0');\r\n        require(softCap < hardCap, \"Softcap must be lower than Hardcap\");\r\n        require(minPurchase < maxPurchase, \"minPurchase must be lower than maxPurchase\");\r\n        require(availableTokens > 0 , 'availableTokens must be > 0');\r\n        require(_minPurchase > 0, '_minPurchase should > 0');\r\n        endICO = endDate; \r\n        minPurchase = _minPurchase;\r\n        maxPurchase = _maxPurchase;\r\n        softCap = _softCap;\r\n        hardCap = _hardCap;\r\n        _weiRaised = 0;\r\n    }\r\n  \r\n    function stopICO() external onlyOwner icoActive(){\r\n        endICO = 0;\r\n        if(_weiRaised >= softCap) {\r\n            _forwardFunds();\r\n        }\r\n        /*else{\r\n            startRefund = true;\r\n            refundStartDate = block.timestamp;\r\n        }*/\r\n    }\r\n    \r\n    function _forwardFunds() internal {\r\n        _wallet.transfer(msg.value);\r\n    }\r\n  \r\n    function buyTokens(address beneficiary) public nonReentrant icoActive payable {\r\n        uint256 weiAmount = msg.value;\r\n        _preValidatePurchase(beneficiary, weiAmount);\r\n        uint256 tokens = _getTokenAmount(weiAmount);\r\n        _weiRaised = _weiRaised.add(weiAmount);\r\n        availableTokens = availableTokens - tokens;\r\n        _contributions[beneficiary] = _contributions[beneficiary].add(weiAmount);\r\n        \r\n        uint256 amount = claimTokens(beneficiary);\r\n        \r\n        emit PresaleProcessed(\r\n          beneficiary,\r\n          amount,\r\n          block.timestamp\r\n        );\r\n    }\r\n    \r\n    function _preValidatePurchase(address beneficiary, uint256 weiAmount) internal view {\r\n        require(beneficiary != address(0), \"Crowdsale: beneficiary is the zero address\");\r\n        require(weiAmount != 0, \"Crowdsale: weiAmount is 0\");\r\n        require(weiAmount >= minPurchase, 'have to send at least: minPurchase');\r\n        require(_contributions[beneficiary].add(weiAmount)<= maxPurchase, 'can\\'t buy more than: maxPurchase');\r\n        require((_weiRaised+weiAmount) <= hardCap, 'Hard Cap reached');\r\n        this; \r\n    }\r\n    \r\n    function claimTokens(address reciever) internal icoNotActive returns(uint256){\r\n        uint256 tokensAmt = _getTokenAmount(_contributions[reciever]);\r\n        _contributions[reciever] = 0;\r\n        _token.transfer(reciever, tokensAmt);\r\n        return tokensAmt;\r\n    }\r\n    \r\n    function _getTokenAmount(uint256 weiAmount) internal view returns (uint256) {\r\n        return weiAmount.mul(_rate).div(10**_tokenDecimals);\r\n    }\r\n    \r\n    function withdraw() external onlyOwner icoNotActive{\r\n         //require(startRefund == false || (refundStartDate + 3 days) < block.timestamp);\r\n         require(address(this).balance > 0, 'Contract has no money');\r\n        _wallet.transfer(address(this).balance);    \r\n    }\r\n    \r\n    function checkContribution(address addr) public view returns(uint256){\r\n        return _contributions[addr];\r\n    }\r\n\r\n    function setRate(uint256 newRate) external onlyOwner icoNotActive{\r\n        _rate = newRate;\r\n    }\r\n    \r\n    function setAvailableTokens(uint256 amount) public onlyOwner icoNotActive{\r\n        availableTokens = amount;\r\n    }\r\n \r\n    function weiRaised() public view returns (uint256) {\r\n        return _weiRaised;\r\n    }\r\n    \r\n    function setWalletReceiver(address payable newWallet) external onlyOwner(){\r\n        _wallet = newWallet;\r\n    }\r\n    \r\n    function setHardCap(uint256 value) external onlyOwner{\r\n        hardCap = value;\r\n    }\r\n    \r\n    function setSoftCap(uint256 value) external onlyOwner{\r\n        softCap = value;\r\n    }\r\n    \r\n    function setMaxPurchase(uint256 value) external onlyOwner{\r\n        maxPurchase = value;\r\n    }\r\n    \r\n     function setMinPurchase(uint256 value) external onlyOwner{\r\n        minPurchase = value;\r\n    }\r\n    \r\n    function takeTokens(IERC20 tokenAddress)  public onlyOwner icoNotActive{\r\n        IERC20 tokenBEP = tokenAddress;\r\n        uint256 tokenAmt = tokenBEP.balanceOf(address(this));\r\n        require(tokenAmt > 0, 'BEP-20 balance is 0');\r\n        tokenBEP.transfer(_wallet, tokenAmt);\r\n    }\r\n    \r\n    modifier icoActive() {\r\n        require(endICO > 0 && block.timestamp < endICO && availableTokens > 0, \"ICO must be active\");\r\n        _;\r\n    }\r\n    \r\n    modifier icoNotActive() {\r\n        require(endICO < block.timestamp, 'ICO should not be active');\r\n        _;\r\n    }\r\n}\r\n",
  "sourcePath": "C:\\Users\\HP\\Documents\\react\\nft-antique-art\\contracts\\Presale.sol",
  "compiler": {
    "name": "solc",
    "version": "0.8.0+commit.c7dfd78e.Emscripten.clang"
  },
  "schemaVersion": "3.4.3",
  "updatedAt": "2021-10-24T01:46:41.254Z",
  "networkType": "ethereum",
  "devdoc": {
    "kind": "dev",
    "methods": {
      "owner()": {
        "details": "Returns the address of the current owner."
      },
      "renounceOwnership()": {
        "details": "Leaves the contract without owner. It will not be possible to call `onlyOwner` functions anymore. Can only be called by the current owner. NOTE: Renouncing ownership will leave the contract without an owner, thereby removing any functionality that is only available to the owner."
      },
      "transferOwnership(address)": {
        "details": "Transfers ownership of the contract to a new account (`newOwner`). Can only be called by the current owner."
      }
    },
    "version": 1
  },
  "userdoc": {
    "kind": "user",
    "methods": {},
    "version": 1
  }
}